:020000040800F2
:1000000000000220C1C6000851B9000859B9000813
:1000100061B9000869B9000871B900080000000062
:1000200000000000000000000000000079B9000896
:1000300087B900080000000095B90008A3B90008BE
:1000400011C7000811C7000811C7000811C7000830
:1000500011C7000811C7000811C7000811C7000820
:1000600011C7000811C7000811C70008B1B900087E
:1000700011C7000811C7000811C7000811C7000800
:1000800011C70008C5B90008D9B900080000000070
:1000900000000000000000000000000011C7000880
:1000A00011C7000811C7000811C7000811C70008D0
:1000B000EDB9000811C7000801BA000815BA000818
:1000C00029BA000811C7000811C7000811C70008A5
:1000D00011C700083DBA000811C700080000000061
:1000E00011C7000811C7000811C700080000000070
:1000F00000000000000000000000000011C7000820
:100100000000000011C7000811C7000811C700084F
:1001100000000000000000000000000000000000DF
:1001200051BA000811C7000865BA000811C70008D5
:1001300011C70008000000000000000000000000DF
:1001400000000000000000000000000011C70008CF
:1001500011C7000811C7000879BA000811C70008C4
:1001600011C7000811C700080000000000000000CF
:10017000000000000000000000000000000000007F
:100180000000000011C7000800000000000000008F
:0801900011C7000811C70008A7
:1001A00010B5054C237833B9044B13B10448AFF3B1
:1001B00000800123237010BDC80200200000000051
:1001C0008094010808B5034B1BB103490348AFF302
:1001D000008008BD00000000CC02002080940108CF
:1001E00001F0FF01102A2BDB10F0070F08D010F8E8
:1001F000013B013A8B422DD010F0070F42B3F6D1EC
:10020000F0B441EA012141EA014122F007047FF004
:1002100000070023F0E80256083C85EA010586EA5B
:10022000010685FA47F5A3FA87F586FA47F6A5FA97
:1002300087F68EB9EED1F0BC01F0FF0102F00702A3
:1002400032B110F8013B013A83EA010313B1F8D14E
:100250000020704701387047002D06BF354603382F
:10026000073815F0010F07D1013015F4807F02BF68
:10027000013015F4C03F0130F0BC0138704700BFB9
:10028000034613F8012B002AFBD1181A01387047D6
:1002900081F0004102E000BF83F0004330B54FEA37
:1002A00041044FEA430594EA050F08BF90EA020FA4
:1002B0001FBF54EA000C55EA020C7FEA645C7FEA37
:1002C000655C00F0E2804FEA5454D4EB5555B8BF5A
:1002D0006D420CDD2C4480EA020281EA030382EACB
:1002E000000083EA010180EA020281EA0303362D5D
:1002F00088BF30BD11F0004F4FEA01314FF4801C30
:100300004CEA113102D0404261EB410113F0004F41
:100310004FEA03334CEA133302D0524263EB4303F8
:1003200094EA050F00F0A780A4F10104D5F1200E96
:100330000DDB02FA0EFC22FA05F2801841F10001F1
:1003400003FA0EF2801843FA05F359410EE0A5F1C5
:1003500020050EF1200E012A03FA0EFC28BF4CF0F6
:10036000020C43FA05F3C01851EBE37101F00045AC
:1003700007D54FF0000EDCF1000C7EEB00006EEBB9
:100380000101B1F5801F1BD3B1F5001F0CD3490843
:100390005FEA30004FEA3C0C04F101044FEA44529A
:1003A00012F5800F80F09A80BCF1004F08BF5FEA21
:1003B000500C50F1000041EB045141EA050130BD01
:1003C0005FEA4C0C404141EB0101013C28BFB1F513
:1003D000801FE9D291F0000F04BF01460020B1FA5E
:1003E00081F308BF2033A3F10B03B3F120020CDA31
:1003F0000C3208DD02F1140CC2F10C0201FA0CF00F
:1004000021FA02F10CE002F11402D8BFC2F1200C73
:1004100001FA02F120FA0CFCDCBF41EA0C01904029
:10042000E41AA2BF01EB0451294330BD6FEA040472
:100430001F3C1CDA0C340EDC04F11404C4F120025D
:1004400020FA04F001FA02F340EA030021FA04F36F
:1004500045EA030130BDC4F10C04C4F1200220FAC6
:1004600002F001FA04F340EA0300294630BD21FA04
:1004700004F0294630BD94F0000F83F4801306BFCA
:1004800081F480110134013D4EE77FEA645C18BFBE
:100490007FEA655C29D094EA050F08BF90EA020F55
:1004A00005D054EA000C04BF1946104630BD91EA4D
:1004B000030F1EBF0021002030BD5FEA545C05D150
:1004C0004000494128BF41F0004130BD14F580048F
:1004D0003CBF01F5801130BD01F0004545F0FE4103
:1004E00041F470014FF0000030BD7FEA645C1ABF38
:1004F000194610467FEA655C1CBF0B46024650EA6F
:10050000013406BF52EA033591EA030F41F400219A
:1005100030BD00BF90F0000F04BF0021704730B520
:100520004FF4806404F132044FF000054FF00001F5
:1005300050E700BF90F0000F04BF0021704730B5B6
:100540004FF4806404F1320410F0004548BF40428B
:100550004FF000013EE700BF42004FEAE2014FEAE0
:1005600031014FEA02701FBF12F07F4393F07F4FBB
:1005700081F06051704732F07F4208BF704793F0BE
:100580007F4F04BF41F40021704730B54FF46074D1
:1005900001F0004521F000411CE700BF50EA0102D4
:1005A00008BF704730B54FF000050AE050EA01027D
:1005B00008BF704730B511F0004502D5404261EBED
:1005C00041014FF4806404F132045FEA915C3FF42E
:1005D000D8AE4FF003025FEADC0C18BF03325FEACB
:1005E000DC0C18BF033202EBDC02C2F1200300FA7C
:1005F00003FC20FA02F001FA03FE40EA0E0021FAA1
:1006000002F11444BDE600BF70B54FF0FF0C4CF48E
:10061000E06C1CEA11541DBF1CEA135594EA0C0F40
:1006200095EA0C0F00F0DEF82C4481EA030621EA7B
:100630004C5123EA4C5350EA013518BF52EA0335B6
:1006400041F4801143F4801338D0A0FB02CE4FF068
:100650000005E1FB02E506F00042E0FB03E54FF098
:100660000006E1FB03569CF0000F18BF4EF0010E90
:10067000A4F1FF04B6F5007F64F5407404D25FEA8C
:100680004E0E6D4146EB060642EAC62141EA55513F
:100690004FEAC52040EA5E504FEACE2EB4F1FD0C81
:1006A00088BFBCF5E06F1ED8BEF1004F08BF5FEAFF
:1006B000500E50F1000041EB045170BD06F00046B1
:1006C00046EA010140EA020081EA0301B4EB5C045E
:1006D000C2BFD4EB0C0541EA045170BD41F4801156
:1006E0004FF0000E013C00F3AB8014F1360FDEBF7B
:1006F000002001F0004170BDC4F10004203C35DA57
:100700000C341BDC04F11404C4F1200500FA05F3D9
:1007100020FA04F001FA05F240EA020001F000427A
:1007200021F0004110EBD37021FA04F642EB0601F0
:100730005EEA430E08BF20EAD37070BDC4F10C041A
:10074000C4F1200500FA04F320FA05F001FA04F2DE
:1007500040EA020001F0004110EBD37041F10001CA
:100760005EEA430E08BF20EAD37070BDC4F12005D5
:1007700000FA05F24EEA020E20FA04F301FA05F23D
:1007800043EA020321FA04F001F0004121FA04F2E5
:1007900020EA020000EBD3705EEA430E08BF20EAB5
:1007A000D37070BD94F0000F0FD101F000464000EF
:1007B00041EB010111F4801F08BF013CF7D041EA71
:1007C000060195F0000F18BF704703F00046520075
:1007D00043EB030313F4801F08BF013DF7D043EA46
:1007E0000603704794EA0C0F0CEA135518BF95EAFC
:1007F0000C0F0CD050EA410618BF52EA4306D1D183
:1008000081EA030101F000414FF0000070BD50EAA1
:10081000410606BF1046194652EA430619D094EA2B
:100820000C0F02D150EA013613D195EA0C0F05D115
:1008300052EA03361CBF104619460AD181EA030169
:1008400001F0004141F0FE4141F470014FF0000021
:1008500070BD41F0FE4141F4780170BD70B54FF0BC
:10086000FF0C4CF4E06C1CEA11541DBF1CEA13553C
:1008700094EA0C0F95EA0C0F00F0A7F8A4EB05041E
:1008800081EA030E52EA03354FEA013100F0888015
:100890004FEA03334FF0805545EA131343EA1263DE
:1008A0004FEA022245EA111545EA10654FEA002693
:1008B0000EF000419D4208BF964244F1FD0404F54C
:1008C000407402D25B084FEA3202B61A65EB0305A8
:1008D0005B084FEA32024FF480104FF4002CB6EB65
:1008E000020E75EB030E22BFB61A754640EA0C00E5
:1008F0005B084FEA3202B6EB020E75EB030E22BF25
:10090000B61A754640EA5C005B084FEA3202B6EB65
:10091000020E75EB030E22BFB61A754640EA9C0024
:100920005B084FEA3202B6EB020E75EB030E22BFF4
:10093000B61A754640EADC0055EA060E18D04FEAB2
:10094000051545EA16754FEA06164FEAC30343EA52
:1009500052734FEAC2025FEA1C1CC0D111F4801F1F
:100960000BD141EA00014FF000004FF0004CB6E718
:1009700011F4801F04BF01430020B4F1FD0C88BFB7
:10098000BCF5E06F3FF6AFAEB5EB030C04BFB6EBC2
:10099000020C5FEA500C50F1000041EB045170BDB5
:1009A0000EF0004E4EEA113114EB5C04C2BFD4EBE2
:1009B0000C0541EA045170BD41F480114FF0000E66
:1009C000013C90E645EA060E8DE60CEA135594EAE2
:1009D0000C0F08BF95EA0C0F3FF43BAF94EA0C0FE5
:1009E0000AD150EA01347FF434AF95EA0C0F7FF45A
:1009F00025AF104619462CE795EA0C0F06D152EAAE
:100A000003353FF4FDAE1046194622E750EA410691
:100A100018BF52EA43067FF4C5AE50EA41047FF4A2
:100A20000DAF52EA43057FF4EBAE12E74FF0FF3C07
:100A300006E000BF4FF0010C02E000BF4FF0010CD8
:100A40004DF804CD4FEA410C7FEA6C5C4FEA430C51
:100A500018BF7FEA6C5C1BD001B050EA410C0CBFA0
:100A600052EA430C91EA030F02BF90EA020F002002
:100A7000704710F1000F91EA030F58BF994208BF69
:100A800090422CBFD8176FEAE37040F00100704726
:100A90004FEA410C7FEA6C5C02D150EA013C07D17D
:100AA0004FEA430C7FEA6C5CD6D152EA033CD3D0C8
:100AB0005DF8040B704700BF8446104662468C46C2
:100AC0001946634600E000BF01B5FFF7B7FF0028F5
:100AD00048BF10F1000F01BD4DF808EDFFF7F4FF1E
:100AE0000CBF012000205DF808FB00BF4DF808EDA9
:100AF000FFF7EAFF34BF012000205DF808FB00BFCC
:100B00004DF808EDFFF7E0FF94BF012000205DF8ED
:100B100008FB00BF4DF808EDFFF7CEFF94BF0120A2
:100B200000205DF808FB00BF4DF808EDFFF7C4FF9B
:100B300034BF012000205DF808FB00BF4FEA410CE4
:100B40007FEA6C5C02D150EA013C0AD14FEA430CC7
:100B50007FEA6C5C02D152EA033C02D14FF0000004
:100B600070474FF0010070474FEA410212F5001242
:100B700015D211D56FF47873B3EB625212D94FEAE4
:100B8000C12343F0004343EA505311F0004F23FACE
:100B900002F018BF404270474FF00000704750EA23
:100BA000013005D111F0004008BF6FF000407047E0
:100BB0004FF00000704700BF4A0011D212F500123A
:100BC00011D20DD56FF47873B3EB62520ED44FEAA5
:100BD000C12343F0004343EA505323FA02F0704725
:100BE0004FF00000704750EA013002D14FF0FF3063
:100BF00070474FF0000070474FEA4102B2F1E04306
:100C000024BFB3F5001CDCF1FE5C0DD901F0004CF3
:100C10004FEAC0024CEA5070B2F1004F40EB830043
:100C200008BF20F00100704711F0804F21D113F16F
:100C30003872BCBF01F00040704741F480114FEAA8
:100C40005252C2F11802C2F1200C10FA0CF320FA31
:100C500002F018BF40F001004FEAC1234FEAD3234E
:100C600003FA0CFC40EA0C0023FA02F34FEA4303B8
:100C7000CCE77FEA625307D150EA01331EBF4FF041
:100C8000FE4040F44000704701F0004040F0FE405C
:100C900040F40000704700BF53B94AB9002908BFAB
:100CA00000281CBF4FF0FF314FF0FF3000F0BEB9FD
:100CB000ADF1080C6DE904CE00F03CF8DDF804E07D
:100CC000DDE9022304B0704738B500220023044652
:100CD0000D46FFF70BFF28B920462946BDE83840EE
:100CE00000F00AB8204605F1004100F005F8404246
:100CF00061EB410138BD00BFD0B50C4B0022064668
:100D00000F46FFF781FCFFF757FF0446FFF702FC91
:100D1000074B0022FFF778FC02460B463046394667
:100D2000FFF7BAFAFFF748FF2146D0BD0000F03DBB
:100D30000000F0412DE9F047089D8E4604468846A4
:100D4000002B4AD18A42174662D9B2FA82F64EB1D6
:100D5000C6F1200301FA06F820FA03F3B74043EA8C
:100D60000808B4404FEA174E1FFA87FCB8FBFEF1A3
:100D7000230C0EFB118843EA084301FB0CF29A4254
:100D800009D9FB1801F1FF3080F0EA809A4240F265
:100D9000E78002393B449A1AA3B2B2FBFEF00EFB85
:100DA000102243EA024300FB0CFC9C4509D9FB18C6
:100DB00000F1FF3280F0D6809C4540F2D3803B4466
:100DC000023840EA0140A3EB0C0300211DB1F340BF
:100DD0000022C5E90032BDE8F0878B4205D90DB18C
:100DE000C5E9000100210846F5E7B3FA83F10029BF
:100DF00046D1734502D3824200F20581841A6EEB1C
:100E0000030201209046002DE5D0C5E90048E2E745
:100E1000002A00F09080B2FA82F6002E40F0A48002
:100E20008A1A030C4FEA174E80B2BCB20121B2FB02
:100E3000FEFC0EFB1C2243EA024304FB0CF29A4226
:100E400007D9FB180CF1FF3802D29A4200F2E08079
:100E5000C4469B1AB3FBFEF20EFB123340EA034377
:100E600002FB04F49C4207D9FB1802F1FF3002D2C6
:100E70009C4200F2CA8002461B1B42EA0C40A5E7D6
:100E8000C1F120068B4022FA06F71F430EFA01F447
:100E900020FA06F32EFA06FE4FEA1749234300FA1A
:100EA00001F81FFA87FCBEFBF9F01C0C09FB10EEE1
:100EB00044EA0E4400FB0CFEA64502FA01F209D9F1
:100EC0003C1900F1FF3A80F09C80A64540F29980E1
:100ED00002383C44A4EB0E041FFA83FEB4FBF9F382
:100EE00009FB13444EEA044403FB0CFCA44508D957
:100EF0003C1903F1FF3E80F08280A4457FD9023B7C
:100F00003C4443EA0040A4EB0C04A0FB02EC644523
:100F10007346E14662D35FD05DB1B8EB030264EB88
:100F2000090404FA06F622FA01F31E43CC40C5E98F
:100F3000006400214FE7B1FBF2FC010C41EA0E41D5
:100F400080B240EA01423B4638463C46B846BE467F
:100F50002026B1FBF7F1A2EB080241EA0C4166E75B
:100F6000014618E710462CE7C6F120022EFA02F3DC
:100F7000B740B14020FA02F24FEA174E0A43B3FBE2
:100F8000FEF8BCB20EFB1833110C41EA034108FB1A
:100F900004F9B04089454FEA104380B23ED9791830
:100FA00008F1FF3C01D289451FD8A1EB0901B1FB33
:100FB000FEF909FB04F80EFB191192B242EA014254
:100FC000424529D2BA1809F1FF31C4D24245C2D2F2
:100FD000A9F102013A44BEE7F0459DD2BEEB0203FF
:100FE0006CEB070C0138E14696E7A7EB0909494489
:100FF000A8F1020CB1FBFEF909FB04F8DBE773462C
:101000007FE7504666E70846FDE63B44023A33E791
:10101000ACF1020C3B441CE749469CE7A1EB0901FB
:10102000C446B1FBFEF909FB04F8C4E7704700BFF2
:1010300080B582B000AF78603960124B00221A7020
:10104000114B00221A7040227968104813F073FF88
:101050000E4B002283F83F20202239680C4813F001
:101060006AFF0B4B0022DA770A4B32221A60054BDB
:101070000D221A70084B00221A7000BF0837BD46B7
:1010800080BD00BFE4020020E80200200003002031
:1010900040030020EC0200201C05002080B582B037
:1010A00000AF78600B467B8013463B801D4B5B682E
:1010B000002B02D14FF0FF332FE03B88002B02D1F1
:1010C00047F230533B80184B184A1A600F22796858
:1010D000174813F030FF164B0022DA737B880A2280
:1010E0001449184612F0EEFE3B880A2212491846AF
:1010F00012F0E8FE114B1B78002B01D101230CE00C
:101100000F4B1B7803F00203DBB2002B01D100234D
:1011100003E00C4B09221A70062318460837BD4617
:1011200080BD00BF20050020000000205544500075
:1011300060030020700300208803002000030020CB
:10114000E8020020E402002080B400AF094B1B78C5
:1011500003F00203DBB2002B05D0074B1B78002BFA
:1011600001D0054B00E000231846BD465DF8047B26
:10117000704700BFE80200207803002080B483B0ED
:1011800000AF0346FB710B4B1B885A1C91B2094AF6
:1011900011801946084AFB795354064B1B88802B53
:1011A00002D1044B00221A8000BF0C37BD465DF807
:1011B000047B7047140500209403002080B588B09C
:1011C00000AFF860084611461A4603467B810B467D
:1011D0003B811346FB80464B5B68002B02D14FF0EE
:1011E000FF3381E0434B1B7803F04003DBB2002B5D
:1011F00001D1052378E03F4B1B7803F00803DBB2F5
:10120000002B68D100237B773B8907F110010A226C
:10121000184612F057FE07F110031846FFF730F892
:1012200003467B777B7F042B02D87B7F002B01D189
:101230000B2359E0304801F06DF907F1100318460F
:1012400001F068F92D4801F065F90023FB8320E0E7
:101250007B895A1C7A811A46FB681A44284B1B88E2
:10126000591C88B22649088019461278254B5A54D1
:10127000234B1B88B3F5807F02D1214B00221A80BB
:101280007A89FB889A4201D100237B81FB8B013351
:10129000FB83FA8B3B899A42DAD3164A137843F0E0
:1012A00004031370134A137843F008031370164BAA
:1012B0001B68002B0DD0144B1B6814489847124B29
:1012C0001B6807F11002104698470F4B1B68104827
:1012D0009847092308E00C4B1B68002B03D00A4BEE
:1012E0001B680C489847082318462037BD4680BD28
:1012F00020050020E8020020549B01089894010872
:101300001A05002014040020FC0200209C9401080F
:10131000B0940108B494010880B582B000AF786041
:101320000C227968104813F090FE104B00221A70BE
:101330000F4B00221A700F4B00221A800E4B002216
:101340001A800E4B00221A800D4B00221A800D4B82
:1013500000221A700C4B00221A600C4B00221A60FB
:1013600000BF0837BD4680BD20050020E4020020F4
:101370008E030020180500201A0500201605002005
:1013800014050020E8020020F8020020FC020020E2
:1013900080B400AF134B1B68002B04D0114B1B68AB
:1013A000013B104A1360104B1B68002B0BD00E4BF7
:1013B0001B68013B0C4A13600B4B1B68002B02D1CE
:1013C0000A4B00221A700A4B1B68002B04D0084BF2
:1013D0001B68013B064A136000BFBD465DF8047BF5
:1013E000704700BFEC020020F00200208E030020B6
:1013F000F402002080B500AF084B1A88084B1B8808
:101400009A4201D000F016FA064B1B68002B01D15E
:1014100000F0ECFD01F002F800BF80BD16050020D1
:1014200014050020EC02002080B483B000AF786087
:10143000044A7B68136000BF0C37BD465DF8047B2F
:10144000704700BFF802002080B483B000AF78601E
:10145000044A7B68136000BF0C37BD465DF8047B0F
:10146000704700BFFC02002080B582B000AF034689
:10147000FB71FB79002B14BF01230023DBB21A465A
:10148000042103480CF0ACFD00BF0837BD4680BD09
:101490000004024080B483B000AF0346FB710C4BE4
:1014A0001B681B6803F08003802B0AD1084B1B6864
:1014B000FA795A60074B1B680133064A136001230F
:1014C00000E0002318460C37BD465DF8047B7047EA
:1014D0006C2600208C23002080B485B000AF03462A
:1014E000FB71154B1B680133134A1360134BB3F8A0
:1014F0000C319BB20133FB81FB897F2B01D9002387
:10150000FB810E4BB3F80E319BB2FA899A420CD094
:101510000A4BB3F80C319BB21A46084B1344FA79C4
:101520005A73064AFB89A2F80C3100BF1437BD4636
:101530005DF8047B704700BF94230020FC05002069
:1015400080B584B000AF0346FB7197F907300A2BD2
:1015500000F2848001A252F823F000BF03160008B5
:101560005D1600085D1600085D1600088915000864
:10157000E31500085D160008B31500085D160008A5
:101580005D16000831160008FFF7DEFDF860FB6805
:10159000002B65D00F22F968344813F0CCFC334B94
:1015A0000022DA73324B01221A70324B01221A7078
:1015B00056E0314B012283F858222F4B012283F849
:1015C00057222E4B00221A702D4B00221A602D4BF1
:1015D00000221A700BF004F9034664332A4A1360A0
:1015E0003FE0254B002283F85822244B00221A703A
:1015F000244B00221A70254B1B680133234A1360C9
:101600002FE01C4B00221A701B4B002283F858223B
:10161000194B002283F85722184B00221A70194BDD
:1016200000221A70194B1B680133184A136018E026
:10163000124B00221A70164B1B680133144A1360B8
:101640000BF0CEF80346134A13600D4B00221A60CC
:10165000104B1B6864330C4A136002E000BF00E0CB
:1016600000BF00BF1037BD4680BD00BFA0000020F6
:101670008A23002059080020FC050020A523002013
:10168000B4230020C0230020C4230020BC2300205A
:10169000B0230020B823002080B584B000AF78606C
:1016A0007B68002B59D00023FB600B222E49786801
:1016B00013F02FFC0346002B02D12C4BFB6040E0C3
:1016C0000B222B49786813F024FC0346002B02D12F
:1016D000284BFB6035E00A222749786813F019FC93
:1016E0000346002B02D1254BFB602AE00A22244945
:1016F000786813F00EFC0346002B02D1214BFB60EF
:101700001FE00C222049786813F003FC0346002BED
:1017100002D11E4BFB6014E00B221D49786813F0C8
:10172000F8FB0346002B02D11A4BFB6009E00922AB
:101730001949786813F0EDFB0346002B01D1174BD4
:10174000FB60FB68002B0AD01122F968144813F0E3
:10175000F2FB134B00225A7402E000BF00E000BF0E
:101760001037BD4680BD00BFCC940108D894010855
:10177000DC940108E8940108EC940108F89401084D
:10178000FC940108089501080C9501081C950108B6
:10179000209501082C950108309501083C95010819
:1017A000B000002080B500AF42F2B82242F2B8216A
:1017B0000248FFF773FC0346184680BD40950108B8
:1017C00080B500AF144B1B78DBB2002B21D0134B3C
:1017D00093F85832DBB2002B1BD0114B1B78DBB2D5
:1017E000002B16D10F4B1B78DBB20F4A1278D1B207
:1017F0000E4A1278D2B218460AF046FC0346002B75
:1018000007D0054B00221A70094B1B680133084AA8
:10181000136000BF80BD00BFA0230020FC05002096
:10182000A5230020A1230020A2230020A323002021
:101830009C23002080B582B000AF7F4B1B780D2B1E
:1018400007D07D4B1B780E2B03D07B4B1B780F2BC7
:1018500004D17A4B1A887A4B1A80C1E3774B1B88E4
:10186000FB80784B02221A60B4E3754B1B881A4642
:10187000754B9B5C7B71754B1B780C2B00F26A835C
:1018800001A252F823F000BFBD180008AD190008EE
:101890008F1B0008551F0008551F0008C51D0008B4
:1018A0000B1E0008211E00084D1E0008551F0008D1
:1018B000991E0008C11E0008171F0008644B002273
:1018C0001A70644B04221A703EE0614B1B781A4672
:1018D000614B53F822305F4A127813441B787A79AF
:1018E0009A422BD15A4B1B781A465B4B53F8223045
:1018F0001B78303B9AB2594B1A80584B1B881A46BA
:10190000920013445B009AB2544B1A80504B1B78E0
:101910001A46514B53F8223001331B781A464F4B6D
:101920001B8813449BB2303B9AB24C4B1A804B4BF2
:101930001B88013B9AB2494B1A800DE0444B1B783F
:101940000133DAB2424B1A70414B1B781A46424BB4
:1019500053F82230002BB8D13D4B1B781A463E4B32
:1019600053F82230002B09D0384B01221A70394B22
:101970001B780133DAB2374B1A70F2E2314B002296
:101980001A60374B1B7803F00103DBB2002B00F029
:10199000E8827B793E2B40F0E482314A137823F0D1
:1019A000010313702F4B00221A60DAE2284B1B78D8
:1019B0001A46294B53F82230264A127813441B78D2
:1019C0007A799A4233D1254B1B88013B9AB2234B3B
:1019D0001A80224B1B88002B03D07B790D2B40F003
:1019E000CF801B4B1B781A461B4B53F82230023317
:1019F0001B78303BDAB2154B1A70144B1B781A4621
:101A0000920013445B00DAB2104B1A70104B1B7833
:101A10001A46114B53F8223003331A780B4B1B78BC
:101A20001344DBB2303BDAB2084B1A70C5E2084B04
:101A300000221A7088E000BFE40200201405002094
:101A400016050020F0020020940300208E030020E1
:101A50002C0500202D050020849C01089003002007
:101A6000E8020020F4020020A64B1B781A46A64B81
:101A700053F822301B78303B9AB2A44B1A80A34B08
:101A80001B881A46920013445B009AB29F4B1A803F
:101A90009C4B1B781A469C4B53F8223001331B7821
:101AA0001A469A4B1B8813449BB2303B9AB2974B11
:101AB0001A80964B1B88964A12789B1A9BB2033366
:101AC0009AB2924B1A80914B1B887F2B36D88D4B44
:101AD0001B781A468C4B53F822308D4A12781344E7
:101AE0001B787A799A4229D1884B1B88002B34D1F4
:101AF000844B1B781A46844B53F8223002331B78F0
:101B0000303BDAB2834B1A70824B1B781A46920034
:101B100013445B00DAB27F4B1A707A4B1B781A467B
:101B2000794B53F8223003331A787A4B1B781344DD
:101B3000DBB2303BDAB2774B1A700EE0714B1B7898
:101B40000133DAB26F4B1A706E4B1B781A466E4B2C
:101B500053F82230002B87D100E000BF694B1B787F
:101B60001A46694B53F82230002B09D1694B0022E9
:101B70001A70694B1B88013B9AB2674B1A801CE2B2
:101B8000634B1B780133DAB2614B1A7015E27B7933
:101B90000A2B40F0E8815F4B00221A70594B1B78EA
:101BA000122B00F2E08101A252F823F0A51D0008DB
:101BB000A51D0008F91B0008151C0008431C00089F
:101BC000A51D0008791C0008791C0008AF1C00083E
:101BD000BB1C0008D71C0008351D0008671F000843
:101BE000411D0008671F0008571D0008A51D0008BB
:101BF000A51D0008731D0008484B1B78022B40F000
:101C0000D380474B00221A60464A137843F02003E2
:101C10001370C9E0434B1B7803F00803DBB2002BC1
:101C200000F0C4803F4A137823F0080313703D4A44
:101C3000137823F0400313703B4B1A883B4B1A80F8
:101C4000B4E0374B00221A60344B1B78062B04D1CA
:101C5000344A137843F020031370324A137843F068
:101C600002031370324B1B68002B00F0A180304B35
:101C70001B68032098479BE02A4A137823F040030F
:101C80001370284A137823F002031370284B1B6843
:101C9000002B03D0264B1B68002098471F4B1B7856
:101CA000062B00F087801D4B0F221A7089E01D4A19
:101CB000137823F04003137083E01A4A137823F05B
:101CC000080313701A4B1B68002B75D0184B1B6848
:101CD0000A20984770E0124B00221A60114A1378CC
:101CE00043F0200313700F4A137843F0400313703E
:101CF0000F4B1B68002B61D00D4B1B6807209847CA
:101D00005CE000BF2C050020849C010890030020AB
:101D10002D0500208E03002016050020E40200207F
:101D2000EC020020E80200201A050020180500201F
:101D3000F8020020904A137823F04003137040E02B
:101D40008D4A137823F0400313708B4A137823F0E5
:101D50000203137035E0884A137823F040031370B0
:101D6000854A137823F002031370844B0F221A70F4
:101D700027E0834B1B68002B0CD0804B1B78062B75
:101D800004D17F4B1B687F48984703E07C4B1B685E
:101D90007D489847794B1B78062B11D17B4B00224D
:101DA0001A600DE000BFDEE000BFDCE000BFDAE05B
:101DB00000BFD8E000BFD6E000BFD4E000BFD2E053
:101DC00000BFD0E07B792C2B0CD1714B06221A700E
:101DD0006B4B1B68002B00F0C880694B1B686D487B
:101DE0009847C2E06A4B00221A706B4B1B88013B7C
:101DF0009AB2694B1A80624B1B68002B00F0B580C9
:101E00005F4B1B6865489847AFE07B79222B40F019
:101E1000AE805F4B07221A70614B00221A80A6E049
:101E20007B79222B03D05E4B1B88102B03D1584BA0
:101E300008221A70C1E05A4B1B885A1C91B2584AAA
:101E400011801946574A7B795354B6E07B790A2BA7
:101E500040F08F804E4B00221A70514B1B880F2B85
:101E60000ED84F4B1B881A464E4B00219954424ABC
:101E7000137843F020031370444B00221A6002E0F1
:101E8000484B00221A70484B1B68002B71D0464B00
:101E90001B68042098476CE07B792C2B06D13C4BC7
:101EA0000B221A703E4B00221A8086E0384B00222B
:101EB0001A70394B1B88013B9AB2374B1A807CE071
:101EC0007B793A2B03D1324B0C221A7075E07B7967
:101ED0002F2B02D97B79392B09D92D4B00221A706F
:101EE0002D4B1B88013B9AB22B4B1A8065E02C4B83
:101EF0001B881A46920013445B009AB2284B1A8042
:101F00007B799AB2264B1B8813449BB2303B9AB222
:101F1000234B1A8051E0254B9B68002B04D0234BA8
:101F20009B687A79104698471D4B1B88013B9AB2F3
:101F30001B4B1A801A4B1B88002B3DD1144B0022DF
:101F40001A700F4B1B68002B36D00D4B1B681848BE
:101F5000984731E00E4B00221A70164B00221A608F
:101F60002BE000BF29E000BF27E000BF25E000BF55
:101F700023E000BF21E000BFE8020020E4020020CF
:101F8000FC020020509501085C950108EC0200203D
:101F90008E03002068950108160500208095010831
:101FA0009003002078030020F80200202005002084
:101FB00094950108F002002000BF0B4B1B880133F1
:101FC0009AB2094B1A80084B1B88802B02D1064B12
:101FD00000221A80044B1B88FA889A427FF445AC91
:101FE0000837BD4680BD00BF1605002080B500AF94
:101FF000A04B64221A60A04B1B780F2B00F2F481D7
:1020000001A252F823F000BF49200008A7200008D1
:10201000F920000817210008352100085321000885
:10202000D92100080D2200083B220008CD2200081B
:10203000F522000891230008AF2300085120000872
:1020400071200008992000088A4B00221A60CBE119
:102050008A4B1B6800209847894B1B68002B03D0D4
:10206000874B1B6887489847834B0E221A70BBE149
:10207000824B1B6801209847814B1B68002B03D0C3
:102080007F4B1B68804898477B4B0F221A70794B17
:102090004FF4FA721A60A7E1774B01221A707B4B5A
:1020A00000221A70A0E1794B1B78002B0DD0774BE2
:1020B0001B78013BDAB2754B1A70744B1B78002BFE
:1020C00006D16D4B0D221A708EE1704B04221A70EE
:1020D0006F4A137823F0200313706E4800F01AFA49
:1020E000674B1B68002B03D0654B1B686A489847F9
:1020F000614B02221A7077E1654B1B7803F02003D5
:10210000DBB2002B03D05C4B03221A706CE15A4BFC
:1021100001221A7068E1614800F0FCF9584B1B6815
:10212000002B03D0564B1B685D489847524B042246
:102130001A7059E15B4800F0EDF9514B1B68002B18
:1021400003D04F4B1B68584898474B4B05221A70D9
:102150004AE14F4B1B7803F00203DBB2002B03D0A4
:10216000454B07221A703FE1504B1B78002B00F0C3
:1021700038814F4800F0CEF9222000F0FBF94B489F
:1021800000F0C8F9222000F0F5F92C2000F0F2F957
:10219000222000F0EFF9474800F0BCF9222000F0BF
:1021A000E9F90D2000F0E6F90A2000F0E3F9344BDC
:1021B0001B68002B03D0324B1B683F489847344ABA
:1021C000137823F0200313702B4B06221A70294B2F
:1021D00041F288321A6007E12D4B1B7803F020038F
:1021E000DBB2002B06D0244B07221A70274B0422A7
:1021F0001A70F9E0224B1B68002B03D0204B1B68A0
:102200002E4898471C4B01221A70EDE02C4B0022FF
:102210001A702C4800F07EF9194B1B68002B03D074
:10222000174B1B6828489847194A137823F0200356
:102230001370114B08221A70D6E0154B1B7803F06F
:102240002003DBB2002B03D00B4B09221A70CBE02A
:102250000E4B1B78013BDAB20C4B1A700B4B1B7800
:10226000002B03D1044B01221A70BDE0024B072260
:102270001A70B9E0EC020020E402002020050020E2
:10228000FC020020A8950108C09501081C0500204B
:10229000E8020020F49A0108D89501080C9B010877
:1022A000E8950108FC9A0108FC950108000300204C
:1022B0001C9B01084003002010960108509501085E
:1022C00078030020289B010824960108474B1B78BF
:1022D000002B00F08880464800F01CF9454B1B6835
:1022E000002B03D0434B1B6843489847434B0A22BB
:1022F0001A7079E0424800F00DF9222000F03AF916
:10230000404800F007F9222000F034F92C2000F0BA
:1023100031F9222000F02EF9344800F0FBF8222099
:1023200000F028F92C2000F025F9374800F0F2F8E9
:10233000344B1B78552B0BD12C2000F01BF9334864
:1023400000F0E8F82C2000F015F9302000F012F928
:102350000D2000F00FF90A2000F00CF9254B1B6846
:10236000002B03D0234B1B6829489847294A137830
:1023700023F020031370274A137823F040031370CF
:102380001E4B0B221A70244B41F288321A602BE04C
:10239000204B1B7803F02003DBB2002B03D0174B3C
:1023A0000C221A7020E0154B01221A701CE0194B08
:1023B0001B7803F00203DBB2002B03D10F4B012289
:1023C0001A7011E0134B1B7803F04003DBB2002BB3
:1023D00003D10A4B09221A7006E00F4B00221A6043
:1023E00002E000BF00E000BF00BF80BD600300202E
:1023F000449B0108FC02002038960108E4020020FA
:10240000349B010800000020700300208803002096
:1024100050960108E8020020EC02002080B582B04E
:1024200000AF344B1B7803F00103DBB2002B13D059
:10243000314B1B68002B59D1304B1A88304B1A8016
:102440002C4A137823F0010313702E4B01221A70CB
:102450002D4B0A221A6049E0294B1A88274B1B880A
:102460009A4244D0264B1B881A46284B9B5CFB7132
:10247000204B1B7803F00403DBB2002B04D0FB7964
:102480003E2B01D10A23FB71214B5B68FA79104680
:1024900098470346002B2AD0164B1B7803F0040301
:1024A000DBB2002B13D0164B1B881A46174B9B5CD4
:1024B0003E2B0CD10F4A137823F0040313700D4AFE
:1024C000137843F0010313700B4B05221A600C4B79
:1024D0001B8801339AB20A4B1A80094B1B88B3F54B
:1024E000807F04D1064B00221A8000E000BF08372D
:1024F000BD4680BDE8020020F40200201A0500203D
:1025000018050020E4020020EC0200201404002042
:102510002005002080B485B000AF78600023FB6008
:1025200017E0FB687A681A44104B1B88591C88B264
:102530000E490880194612780D4B5A540B4B1B88D4
:10254000B3F5807F02D1094B00221A80FB6801336A
:10255000FB60FB687A6813441B78002BE1D100BF55
:1025600000BF1437BD465DF8047B70471A05002094
:102570001404002080B483B000AF0346FB710C4B01
:102580001B885A1C91B20A4A11801946094AFB79E4
:102590005354074B1B88B3F5807F02D1044B0022B4
:1025A0001A8000BF0C37BD465DF8047B704700BF42
:1025B0001A0500201404002080B586B000AF3B1D32
:1025C00000221A605A609A60DA601A6100233B6048
:1025D0000D4B1B6B0C4A43F0010313630A4B1B6B3F
:1025E00003F001033B603B6801237B600023BB6079
:1025F0000123FB603B1D194604480BF055FB00BF4F
:102600001837BD4680BD00BF0038024000000240C0
:1026100080B584B000AF0AF0E3F8F860854B1B7812
:10262000002B07D1FFF7C8FF834AFB681360814B7B
:1026300001221A70012181480BF0BAFC0346FB729B
:10264000FB7A002B01D1012200E000227C4B1A70A2
:102650007C4B1B78002B01D1012200E000227A4B39
:102660001A707A4B1A787A4B1A707A4B1A787A4B1E
:102670001A70754B1B78DBB2002B04D0774B1B68AC
:10268000FA68D31A00E00023754A13606F4B1B7879
:10269000002B12D06B4B1B78002B0ED0714B1B689C
:1026A000FA68D31AB3F5FA7F07D3684B00221A7081
:1026B000674B00221A7000F0D9F86B4B1B78FA7A3E
:1026C0009A4206D0684AFB7A13705B4AFB68136033
:1026D000ADE0594B1B68FA68D31A312B40F2A48045
:1026E000584B1B78FA7A9A4235D1564B1B78002BFF
:1026F00001D1012200E00022534B1A70524B1B788B
:10270000DBB2002B04D0554B1B68FA68D31A00E0EB
:102710000023534A13604B4B1B78002B40F08680FC
:102720004C4B1B78002B40F081804C4B1B68FA68A7
:10273000D31AB3F57A7F79D3444B00221A70454BF4
:1027400001221A70424B00221A70434B01221A7068
:1027500000F018F96AE03B4AFB7A1370394B1B789A
:10276000002B01D1012200E00022374B1A70354BBB
:102770001B78002B0CD1394AFB681360354B0022C3
:102780001A70374B00221A60334B00221A704EE049
:10279000324B1B68FA68D31A7B60314B00221A60F7
:1027A0002C4B1B78002B12D17B68B3F57A7F0ED3AC
:1027B000264B00221A70274B01221A70244B00224C
:1027C0001A70254B01221A7000F0DCF82FE0214B23
:1027D0001B78002B21D17B68B3F57A7F1DD21B4B70
:1027E0001B78002B0FD01F4B1B68FA68D31AB3F568
:1027F000FA7F08D2154B00221A70154B00221A706E
:1028000000F082F813E0114B01221A70154AFB68A0
:1028100013600F4B01221A7009E00C4B00221A7052
:102820000B4B00221A7002E000BF00E000BF10371F
:10283000BD4680BD3C050020400500200000024050
:102840002F050020040000202E0500204405002054
:1028500030050020450500203105002048050020F6
:10286000340500204C0500200500002080B500AF95
:102870001C4B01221A7009F0B3FF03461A4A136079
:102880001A4B1B78DBB2002B08D002F067F9184B0B
:1028900003221A70174B02221A701FE0144B1B7888
:1028A000DBB2002B17D101F051FD134B00221A703F
:1028B000124B4FF000021A60114B00221A80114B8C
:1028C00000221A800A4B00221A7002F067F8094BA6
:1028D00001221A7002E0074B00221A7003F088F8F8
:1028E00000BF80BD3205002038050020BC2200203A
:1028F00058080020330500205C0800202423002015
:10290000282300202A23002080B500AF184B022284
:102910001A7009F065FF0346164A1360164B1B78C0
:10292000DBB2002B05D0154B00221A7003F060F8C3
:102930001DE0134B1B78DBB2072B09D0104B1B7823
:10294000DBB2012B0BD90E4B1B78DBB2082B06D860
:102950000B4B01221A70094B03221A7005E0084B39
:1029600003221A70054B04221A7003F041F880BD4F
:102970003205002038050020BC220020330500204D
:102980005808002080B500AF104B03221A7009F0E0
:1029900027FF03460E4A13600E4B1B78DBB2002B59
:1029A0000CBF01230023DBB2184600F031FA094BBB
:1029B0001B78DBB2002B01D0052200E00622064B7B
:1029C0001A7003F015F800BF80BD00BF320500206B
:1029D000380500205A0800203305002080B400AFDD
:1029E0000E4B00221A800E4B4FF000021A600D4B66
:1029F00001221A700C4B00221A700C4B00221A7024
:102A00000B4B4FF000021A600A4B4FF000021A60A5
:102A100000BFBD465DF8047B704700BF2A2300203D
:102A2000D005002034000020D4050020D50500206A
:102A3000D80500208422002080B400AF0D4B002276
:102A40001A700D4B00221A700C4B00221A700C4B9E
:102A500000221A600B4B00221A600B4B4FF0000251
:102A60001A600A4B4FF000021A6000BFBD465DF8C5
:102A7000047B7047DC050020DD050020DE0500201A
:102A8000E0050020E4050020E8050020EC0500201A
:102A900080B400AF0B4B1B78DAB20A4B5B78DBB229
:102AA0001344DAB2074B9B78DBB21344DAB2054B1E
:102AB000DB78DBB21344DBB21846BD465DF8047B1D
:102AC000704700BF9022002080B483B000AF1A4B43
:102AD0005B78DBB2002B04D1174B9B78DBB2002B69
:102AE00001D0012300E00023FB71134B1B78DBB204
:102AF000002B10D0104B5B78DBB2002B0BD00E4BB1
:102B00009B78DBB2002B06D00B4BDB78DBB2002BC3
:102B100001D0012300E00023BB71FB79002B04D01E
:102B2000BB79002B01D1012300E0002318460C37AC
:102B3000BD465DF8047B70479022002080B483B0CE
:102B400000AF87ED010AC7ED000AD7ED007AF5EE78
:102B5000C07AF1EE10FA02D8D7ED017A1DE097EDB8
:102B6000017AD7ED007AB4EEE77AF1EE10FA02DDE1
:102B7000D7ED007A11E0D7ED007AF1EE677A97EDA4
:102B8000017AB4EEE77AF1EE10FA04D5D7ED007AC7
:102B9000F1EE677A01E0D7ED017AB0EE670A0C3703
:102BA000BD465DF8047B704780B483B000AF0F4B27
:102BB0001B687B600E4B1B78DBB2022B0CD10D4BDC
:102BC000D3ED007AB6EE007A67EE877A97ED017A58
:102BD00077EE277AC7ED017A7B6807EE903AB0EE80
:102BE000670A0C37BD465DF8047B70478000002003
:102BF000520500207400002080B582B000AF87ED40
:102C0000010AC7ED000AD7ED007AF5EEC07AF1EEC1
:102C100010FA05D5D7ED007AF1EE677AC7ED007AA4
:102C2000D7ED000A97ED010AFFF788FFF0EE407A32
:102C3000FDEEE77A17EE903A1BB218460837BD460C
:102C400080BD000080B584B000AF03460A46FB801B
:102C50001346BB80274B1B78DBB2002B07D1B7F99B
:102C600004305B4207EE903AF8EEE77A05E0B7F9F8
:102C7000043007EE903AF8EEE77AC7ED037AB7F939
:102C8000063007EE903AB8EEE77AD7ED037A77EEA2
:102C9000277ADFED190AB0EE670AFFF7ADFF0346AA
:102CA0007B81B7F9063007EE903AF8EEE77ADFED70
:102CB000120AB0EE670AFFF79FFF03463B810D4BF8
:102CC0001B78DBB2002B08D1B7F90820B7F90A301E
:102CD0001146184605F082FE07E0B7F90A20B7F959
:102CE00008301146184605F079FE00BF1037BD4682
:102CF00080BD00BF5305002000F0604580B400AFE8
:102D00002B4B4FF000021A602A4B4FF000021A6062
:102D1000294B4FF000021A60284B4FF000021A6056
:102D2000274B4FF000021A60264B4FF000021A604A
:102D3000254B4FF000021A60244B4FF000021A603E
:102D4000234B00221A60234B00221A70224B4FF0B3
:102D500000021A60214B00221A70214B4FF0000232
:102D60001A60204B4FF000021A601F4B00221A70AD
:102D70001E4B00221A701E4B00221A701D4B00229F
:102D80001A701D4B00221A701C4B00221A801C4B1B
:102D900000221A801B4B00221A801B4B00221A8033
:102DA0001A4B00221A7000BFBD465DF8047B7047C5
:102DB000782200207C2200205C2300206023002059
:102DC0006423002068230020D0230020D423002087
:102DD000C0050020C4050020C8050020CD05002046
:102DE000B4050020B8050020BC050020BD0500206A
:102DF000BF050020CC050020BE0500207405002082
:102E000076050020780500207A0500207D05002049
:102E100080B582B000AF0346FB71FB79002B01D077
:102E2000012300E00023FB71124B1B78DBB2FA791F
:102E30009A4201D0FFF762FF0E4AFB791370FB79CB
:102E4000002B12D10C4B1B78DBB2002B02D00320DD
:102E500001F00CFA094B4FF000021A60084B0022F7
:102E60001A800021002005F0B9FD00BF0837BD46DB
:102E700080BD00BF5A0800205005002024230020F8
:102E80002823002080B58EB000AFA44B1B68BB6226
:102E9000A34B1B687B6300237B8609F0A1FC78624F
:102EA000002387F83130002387F830309D4B1B8892
:102EB0001BB29AB29C4B1A809C4B1B881BB29AB2D5
:102EC0009B4B1A809B4B1B881BB29AB29A4B1A8061
:102ED0009A4B1B78DBB2002B07D1FFF70FFF0021C5
:102EE000002005F07BFD00F043BC954BD3ED007A4C
:102EF0009FED947AF4EEC77AF1EE10FA09DC904B6C
:102F0000D3ED007A9FED907AF4EEC77AF1EE10FAE5
:102F10000CD58E4B1B78DBB2002B02D0062001F0C3
:102F2000A5F90020FFF774FF00F022BC884B1B7846
:102F3000DBB2013B082B00F2968001A252F823F08D
:102F4000652F0008F72F0008F72F0008F72F00085B
:102F5000353000084F300008CF2F0008353000080A
:102F6000353000087B4B1B887B867B4B1B78DBB2A4
:102F7000002B22D0794BD3ED007AF5EE407AF1EEBA
:102F800010FA1AD0764B93ED007A744BD3ED007A99
:102F900067EE277AB7F93200724B734A796AB0EE5E
:102FA000670A01F00DFFB0EE407A5D4BD3ED007A79
:102FB00077EE277AC7ED0D7A67E06B4B00221A6037
:102FC000684B01221A70564B1B687B635DE0664BB1
:102FD00000221A60634B01221A70514B93ED007A64
:102FE000624BD3ED007A77EE277AC7ED0D7A604B0E
:102FF0001B887B8649E05C4B00221A60594B0122FA
:103000001A705C4B1B887B86554BD3ED007AB7F961
:103010003200594B594A796AB0EE670A01F0D0FE86
:10302000B0EE407A3E4BD3ED007A77EE277AC7EDCB
:103030000D7A2AE04C4B00221A604A4B01221A708A
:10304000374B1B687B634B4B1B887B861DE0464BD5
:1030500000221A60434B01221A70314B1B687B63BC
:1030600000237B8611E0404B00221A603D4B012279
:103070001A70424B00221A603F4B01221A70284BF3
:103080001B687B6300237B8600BF304B1B78DBB261
:10309000002B18D03A4B1B78DBB2032B06D0FFF77E
:1030A00083FDF0EE407A374BC3ED007A1C4B93ED75
:1030B000007A344BD3ED007A77EE277AC7ED0D7A9C
:1030C000314B1B887B86314B1B78DBB2002B75D1D3
:1030D0002F4B00221A602F4B00221A702E4B4FF0FC
:1030E00000021A602D4B00221A702D4B4FF0000287
:1030F0001A602C4B00221A702B4B00221A702B4B9B
:1031000000221A702A4B00221A702A4B00221A70D1
:10311000294B4FF000021A605FE000BF342300200B
:1031200058000020802300202C2300208223002030
:103130002E23002084230020302300205A08002062
:10314000C022002000008242000082C25005002000
:1031500058080020282300205C0800202423002099
:103160007400002035000020F0050020AC2700206E
:10317000B02700202A23002036000020F40500207C
:10318000510500205405002058050020AD05002001
:10319000C0050020C4050020C8050020CD05002082
:1031A000B4050020BC050020BD050020BF0500209F
:1031B000CC050020BE050020B8050020AA4B1B88C6
:1031C0001BB21A46A94B1B681344A84A1360A84BAC
:1031D0001B780133DAB2A64B1A70A64B1B78DBB210
:1031E000002B00F08481A24B1B78092B40F27F81D9
:1031F0009E4B1B6807EE903AB8EEE77AF2EE046A4F
:10320000C7EE267AC7ED087A9B4B1B78002B07D0B8
:103210009A4BD3ED007A97ED087A77EE677A01E062
:10322000DFED977AC7ED077AD7ED077AF0EEE77A08
:10323000C7ED067AD7ED087A9FED927A77EEC77AD6
:10324000F0EEE77AC7ED057AD7ED077AF5EEC07AAA
:10325000F1EE10FA01DD01230AE0D7ED077AF5EE71
:10326000C07AF1EE10FA02D54FF0FF3300E00023F0
:10327000FB74D7ED087A9FED837AF4EEC77AF1EE0E
:1032800010FA01DD012301E04FF0FF33BB747E4BE8
:10329000D3ED007AFCEEE77AC7ED017A3B797B74D7
:1032A0007A4BD3ED007AFCEEE77AC7ED017A3B79F1
:1032B0003B74774BD3ED007AFCEEE77AC7ED017AE9
:1032C0003B79FB73734A3B6A1360734AFB69136073
:1032D000664B00221A60664B00221A70664B1B7800
:1032E000002B2ED06D4BD3ED007AF5EEC07AF1EEC7
:1032F00010FA26DD694BD3ED007A97ED067AB4EE2D
:10330000E77AF1EE10FA1CDB97F91330002B18D096
:10331000634B93F90030002B06D0614B93F90030DA
:1033200097F913209A420CD15E4B1B78DBB2FF2B2E
:1033300013D05C4B1B78DBB20133DAB2594B1A70F5
:103340000BE0584B1B78DBB2002B06D0554B1B789B
:10335000DBB2013BDAB2534B1A7097F91330002BF2
:1033600002D04F4AFB7C13704F4BD3ED007AF5EE41
:10337000C07AF1EE10FA16DD4B4BD3ED007A97EDE3
:10338000057AB4EEE77AF1EE10FA0CDB474B1B78C6
:10339000DBB2FF2B13D0454B1B78DBB20133DAB223
:1033A000424B1A700BE0414B1B78DBB2002B06D06E
:1033B0003E4B1B78DBB2013BDAB23C4B1A707B7C94
:1033C000002B17D0374B1B78DBB27A7C9A4211D88E
:1033D000012387F8313097F91330002B02D097F989
:1033E000133001E097F9123087F83030304B01226A
:1033F0001A7011E03B7C002B0ED02C4B1B78DBB2FB
:103400003A7C9A4208D8012387F83130BB7C87F890
:103410003030274B02221A7097F83130002B4DD1F3
:103420001D4BD3ED007AB0EEE77A1C4BD3ED007A5A
:10343000B4EEE77AF1EE10FA40D51E4BD3ED007AE8
:1034400097ED057AB4EEE77AF1EE10FA36D51A4B1D
:103450001B78DBB2FF2B34D0174B1B78DBB2013368
:10346000DAB2154B1A702CE080230020C005002032
:10347000C4050020AD050020CD050020C8050020B2
:1034800000000000008009441C00002020000020F3
:1034900030000020B0050020B405002014000020FA
:1034A000CC050020BC05002018000020BD05002030
:1034B000BE0500202C000020BF050020AE4B0022DE
:1034C0001A70FB7B002B0CD0AB4B1B78DBB2FA7B6A
:1034D0009A4206D8A94B4FF000021A60A64B002270
:1034E0001A70A74A3B6A1360A64B01221A7097F81C
:1034F0003130002B42D097F93030002B3ED0A24B18
:10350000D3ED007AF0EEE77AC7ED0B7AD7ED0B7AC0
:103510009FED9E7AF4EEC77AF1EE10FA01DD9C4B36
:10352000FB62D7ED0B7AF5EEC07AF1EE10FA21DDF1
:1035300097F9303007EE903AB8EEE77A954BD3ED35
:10354000007A27EE277A8D4BD3ED007A77EE277A33
:103550008A4BC3ED007A894BD3ED007AD7ED0B0A85
:10356000B0EE670AFFF7EAFAF0EE407A834BC3ED5C
:10357000007A03E0814B4FF000021A607F4BD3EDDD
:10358000007A97ED0D7A77EE677AC7ED0D7A824B68
:1035900093ED007AD7ED0D7A77EE677A7F4BC3ED26
:1035A000007A7E4BD3ED007A9FED7D7A27EE877A05
:1035B0007C4BD3ED007A77EE277A7A4BC3ED007A15
:1035C000784B93ED007A784BD3ED007AB4EEE77A3E
:1035D000F1EE10FA04DD744B1B68724A136014E0BC
:1035E000714BD3ED007AB1EE677A6E4BD3ED007A72
:1035F000B4EEE77AF1EE10FA07DD6B4BD3ED007A0B
:10360000F1EE677A674BC3ED007A684B93ED007A71
:10361000624BD3ED007A67EE277A654BC3ED007AF3
:10362000644B93ED007A5F4BD3ED007A67EE277A17
:10363000614BC3ED007A614B93ED007AD7ED0A7AC6
:1036400067EE277A5E4BC3ED007A594B93ED007A13
:10365000594BD3ED007A37EE277A594BD3ED007AE8
:1036600077EE277A574BC3ED007A564B1B68564AC4
:1036700013604A4B1B68554A1360554B1B78DBB2ED
:10368000002B15D0534B1B78DBB2012B10D14D4BC7
:10369000D3ED007AFDEEE77A17EE903ABB81B7F9E9
:1036A0003220B7F90C3011461846FFF7CBFA5FE02D
:1036B000474B1B78DBB2002B3DD0464B1B78DBB26F
:1036C000022B38D13F4BD3ED007AFDEEE77A17EEAF
:1036D000903A7B81B7F9323007EE903AB8EEE77A4C
:1036E0003D4BD3ED007A67EE277AFDEEE77A17EED1
:1036F000903A3B81394B1B78DBB2002B0DD17A8994
:103700007B8ED31A9BB218B27A893B8913449BB241
:103710001BB2194605F062F92AE07A893B89D31A6F
:103720009BB218B27A897B8E13449BB21BB21946A6
:1037300005F054F91CE0234BD3ED007AFDEEE77A57
:1037400017EE903A1BB29AB27B8ED31A9BB218B284
:103750001C4BD3ED007AFDEEE77A17EE903A1BB2E0
:103760009AB27B8E13449BB21BB2194605F036F910
:103770003837BD4680BD00BFBF050020B80500201A
:10378000C8050020CD050020280000200000C84208
:103790000000C84224000020C0220020D4230020C2
:1037A0000AD7233C78220020540000204800002043
:1037B0005C2300204C0000206023002050000020EB
:1037C0006423002068230020D02300207C220020D6
:1037D00050050020520500209405002053050020CC
:1037E00080B588B000AF4FF00003FB6108F0F8FF30
:1037F0007861AA4B1B78DBB2092B38D1FFF71CF993
:10380000A74B00221A70A74BA74A1A60A74B4FF686
:103810003E621A80A64B9B899BB240F6543293427B
:1038200011D8A34B1B899BB240F6543293420AD85D
:10383000A04B1B78042B09D89E4B1B780133DAB2BE
:103840009C4B1A7002E09B4B00221A709A4B1B781B
:10385000DBB2002B00F0AD82964B1B78042B40F2BC
:10386000A882FFF7BBF8012006F07EFBA1E28B4B9C
:103870001B78DBB2012B13D9884B1B78DBB2092BE9
:103880000ED8864B1B78DBB2022B09D0834B1B78FA
:10389000DBB2072B04D0894B1B78DBB2002B04D0A2
:1038A000FFF79CF8FFF7C8F88AE2854B1B78002BDE
:1038B00000F06881794B08221A70814B1B78032B2A
:1038C00000F02281032B00F35A81012B02D0022B3E
:1038D00028D054E1754B00221A80724B4FF0000241
:1038E0001A60784B4FF000021A60774B4FF00002DD
:1038F0001A60764B1B687A69D31AB3F5FA7FC0F069
:103900005A826F4B02221A70704A7B691360704AA8
:103910007B6913606F4B1B686F4A13606F4B00220B
:103920001A7048E26B4B93ED007A6B4BD3ED007A43
:1039300077EE677AC7ED047A9FED697AD7ED047A5E
:1039400077EE677AC7ED037A664BD3ED007A97ED91
:10395000037A67EE277AC7ED027A634BD3ED007ADC
:103960009FED627A37EE877AD7ED027A67EE277A93
:103970009FED5F7A27EE877A5E4BD3ED006A5E4B50
:10398000D3ED007A66EEA77A77EE677AF1EE677A82
:10399000C7ED017A594BD3ED007AF0EE670A97ED47
:1039A000010AFFF7CBF887ED010A464BD3ED007A09
:1039B00097ED017A77EE677AC7ED007A504BD3ED39
:1039C000007AF0EE670A97ED000AFFF7B7F887ED87
:1039D000000A3C4B93ED007AD7ED007A77EE277A18
:1039E000384BC3ED007A374BD3ED007A434B93ED60
:1039F000007AF0EE470AB0EE670AFFF79FF8F0EEA4
:103A0000407A304BC3ED007A2E4BD3ED007AFDEEB9
:103A1000E77A17EE903A1AB2244B1A80D7ED047A5F
:103A2000F0EEE77A9FED377AF4EEC77AF1EE10FA0E
:103A30000FDBFFF749F80346002B0AD0274B1B7812
:103A4000022B09D8254B1B780133DAB2234B1A70AD
:103A500002E0224B00221A70D7ED037AF0EEE77AEB
:103A6000B1EE0C7AF4EEC77AF1EE10FA0CD91B4BDA
:103A70001B78022B08D8164B1B687A69D31A40F6BC
:103A8000C312934240F299810D4B03221A700F4AE0
:103A90007B691360114B00221A708EE158080020D8
:103AA000D4050020D00500200000E1C32A23002017
:103AB000FC220020D50500209E000020BC22002012
:103AC000DC050020EC05002084220020E005002019
:103AD000E4050020C8220020E8050020DE050020C3
:103AE0000000B442D80000206C0000200080BB44DD
:103AF00000007A448022002038230020700000203B
:103B00007C00002000003442FEF7DEFF0346002B5D
:103B10000AD0AD4B1B78022B09D8AB4B1B78013375
:103B2000DAB2A94B1A7002E0A74B00221A70A74B19
:103B3000D3ED007AB6EE007A67EE877AA34BC3ED39
:103B4000007AA24BD3ED007AFDEEE77A17EE903AB9
:103B50001AB29F4B1A809C4B1B78022B07D89D4BA7
:103B60001B687A69D31AB3F5967FC0F02881FEF7F7
:103B700063FFFEF733FF984B04221A701FE1FEF734
:103B80005BFF00BF944B1B78DBB2042B0FD1FEF719
:103B90007FFF0346022B0AD9904B1B78012B09D8D3
:103BA0008E4B1B780133DAB28C4B1A7002E08B4BD0
:103BB00000221A70894B1B78012B11D9FEF70EFFDA
:103BC000874B01221A70834A7B691360834B002262
:103BD0001A70814B08221A707D4B00221A80EFE088
:103BE000804B5B899BB240F6C31293420AD87E4B4E
:103BF0001B78042B09D87C4B1B780133DAB27A4B43
:103C00001A7002E0784B00221A70784B1B78DBB2F6
:103C1000002B10D0744B1B78042B0CD9FEF7DEFE62
:103C2000734B744A1A606A4B4FF63E621A806A4BB5
:103C300009221A70C4E0704B1B78DBB2002B0ED146
:103C40006D4B5B78DBB2002B09D16B4B9B78DBB201
:103C5000002B04D1684BDB78DBB2002B29D0674BFB
:103C6000D3ED007A9FED667AF4EEC77AF1EE10FAA2
:103C700003DD644B01221A700CE0604BD3ED007A37
:103C80009FED617AF4EEC77AF1EE10FA02D55D4B42
:103C9000FF221A70594BD3ED007AB0EE670A00F09C
:103CA000B9F8034607EE903AF8EEE77AC7ED077ADF
:103CB0000DE0544B93F900301A464FF42F7302FB7A
:103CC00003F307EE903AF8EEE77AC7ED077AD7EDFF
:103CD000077AF1EE677AC7ED077A454BD3ED007AA4
:103CE00097ED077A77EE677AC7ED067A474BD3ED03
:103CF000007A97ED067AB4EEE77AF1EE10FA03DD7A
:103D0000424B1B68BB6112E0404BD3ED007AF1EEF1
:103D1000677A97ED067AB4EEE77AF1EE10FA06D5F7
:103D20003A4BD3ED007AF1EE677AC7ED067A304B65
:103D300093ED007AD7ED067A77EE277A2C4BC3ED18
:103D4000007A334BD3ED007AF5EEC07AF1EE10FA3B
:103D500024DD274B93ED007A2D4BD3ED007AB4EEA2
:103D6000E77AF1EE10FA04DD294B1B68204A136054
:103D700014E0274BD3ED007AB1EE677A1C4BD3EDFC
:103D8000007AB4EEE77AF1EE10FA07DD204BD3EDBE
:103D9000007AF1EE677A164BC3ED007A144BD3ED3F
:103DA000007AFDEEE77A17EE903A1AB2084B1A80C5
:103DB00006E000BF04E000BF02E000BF00E000BF7B
:103DC0002037BD4680BD00BFDE050020EC05002089
:103DD0002A230020E005002058080020DD050020EF
:103DE000DC050020FC220020D40500209E000020DD
:103DF000D00500200000E1C3902200208C2200208A
:103E0000CDCC4C3D34000020CDCC4CBD7C000020FE
:103E10007000002080B485B000AF87ED010A214B0F
:103E200093ED007A204BD3ED007A27EE277A1D4BD5
:103E3000D3ED007AF7EE006A76EEE76AD7ED017A05
:103E400066EEA77A77EE277A174BC3ED007A174B09
:103E500093ED007A144BD3ED007A67EE277AC7ED25
:103E6000037A134BD3ED007AB1EE677A114BD3EDA1
:103E7000007A67EE277AC7ED027A0B4B1B680E4A71
:103E8000136097ED037AD7ED027A77EE277AFDEE8D
:103E9000E77A17EE903A1BB218461437BD465DF824
:103EA000047B704778000020D80500206C000020BB
:103EB00080220020382300208422002080B584B096
:103EC00000AF87ED010A0346FB700B46BB7013463B
:103ED0007B70D7ED017AF0EEE77AC7ED037A08F050
:103EE0007FFCB860D7ED037AB7EE007AF4EEC77ABC
:103EF000F1EE10FA08D4D7ED037A9FED617AF4EE73
:103F0000C77AF1EE10FA01DD0123B5E0FB78022B50
:103F100002D8BB78012B01D90123ADE0FB78022B3D
:103F200004D17B78642B01D90123A5E0554B1B7884
:103F3000DBB2002B14D0FB78022B09D0524B1B783C
:103F4000DBB2012B04D0504B1B78DBB2072B07D11F
:103F5000FB78022B06D14C4B1B78DBB2002B01D136
:103F6000032389E0484B1B78DBB2072B0BD0474B70
:103F70001B68002B05D0454B1B68BA68D31A642B0D
:103F800001D9042378E0424A7B681360414B4FF02B
:103F900000021A60404B4FF000021A603F4ABB68B3
:103FA00013603F4AFB7813703E4ABB7813707B78EE
:103FB00007EE903AB8EE677ADFED3B6AC7EE267AF5
:103FC0003A4BC3ED007AFEF7EFFDF0EE407A384B46
:103FD000C3ED007A374B00221A80374A7B681360A2
:103FE000364B4FF000021A60354A7B681360354B40
:103FF0004FF000021A60344B4FF000021A60334B4E
:104000001B68334A1360334B00221A70324B002274
:104010001A80324B00221A80314B00221A80314B19
:1040200000221A80304B00221A70304B00221A7086
:104030002F4B1A882F4B1A802D4B1B88002B03D037
:104040002D4B01221A7009E02B4B02221A702B4BC8
:104050001B682B4A13602B4ABB6813602A4B012252
:104060001A702A4B00221A70294B4FF000021A6076
:10407000284B00221A80002318461037BD4680BD09
:104080000000B4435A080020580800203C230020B8
:10409000880500208C05002090050020A405002044
:1040A00052050020530500200000C842940500205E
:1040B00054050020580500205C0500206005002004
:1040C00064050020680500206C05002070000020B9
:1040D000700500207C050020740500207605002076
:1040E000780500207A0500207D0500207E0500204F
:1040F000840000208005002051050020C8220020F7
:1041000084050020A0050020500500205C08002048
:10411000242300202823002080B582B000AF87ED43
:10412000010A03460A46FB701346BB70B978FB7858
:104130000022184697ED010AFFF7C0FE0346184615
:104140000837BD4680BD80B582B000AF87ED010A5B
:1041500003460A46FB701346BB70BA78FB781946D3
:10416000022097ED010AFFF7A9FE0346184608371B
:10417000BD4680BD90B484B000AF87ED030A04460D
:1041800008461146C7ED010A1A462346FB7203464C
:10419000BB720B467B7213467B80104AFB7A13700E
:1041A0000F4ABB7A13700F4A7B7A1370D7ED037AEC
:1041B000F5EEC07AF1EE10FA02D54FF0FF3200E0D2
:1041C0000122094B1A70094A7B681360084A7B88F0
:1041D000138000BF1037BD4690BC7047060000201A
:1041E00007000020AC050020080000200C00002083
:1041F0001000002080B584B000AF87ED010AD7ED34
:10420000017AB0EEE77A114B93F9003007EE903A5D
:10421000F8EEE77A67EE277AC7ED037A0C4B1B6856
:104220000C4A13600C4B1A880C4B1A800C4B1B78F1
:104230000C4A11780C4A1278184697ED030AFFF7DA
:104240003DFE034618461037BD4680BD08000020DD
:104250000C000020800000201000002084000020BE
:104260000600002007000020AC05002080B483B0C9
:1042700000AF0346FB71234AFB791370224B0022E7
:104280001A70224B00221A70214B4FF000021A6064
:10429000204B00221A80204B4FF000021A601F4B67
:1042A0004FF000021A601E4B4FF000021A601D4BC7
:1042B0004FF000021A601C4B4FF000021A601B4BBB
:1042C00000221A601A4B4FF000021A60194B4FF08F
:1042D00000021A60184B00221A80184B4FF000029F
:1042E0001A60174B4FF000021A60164B4FF0000295
:1042F0001A60154B00221A8000BF0C37BD465DF8CE
:10430000047B70477E0500205005002051050020E9
:104310005405002058050020900500208C05002041
:1043200094050020980500209C050020A805002089
:10433000680500206C050020800500207822002000
:1043400060230020242300202823002080B500AF14
:104350000720FFF78BFF00BF80BD000080B58CB049
:1043600000AF8F4B1B78DBB2002B00F0FC8108F014
:1043700037FAF8628B4B1B78DBB2002B18D08A4BD4
:104380001B78DBB2022B09D0884B1B78DBB2012BE8
:1043900004D0864B1B78DBB2072B09D1824B1B78EC
:1043A000DBB2022B10D1814B1B78DBB2002B0BD17F
:1043B0007C4B1B78DBB2002B01D1032300E00423EC
:1043C0001846FFF753FFCFE1784B1B78DBB2072B82
:1043D00010D0774B1B68002B05D0754B1B68FA6A11
:1043E000D31A642B06D90520FFF740FF0020FEF703
:1043F0000FFDB9E16F4B1B78DBB2012B36D16E4B51
:104400001B68FA6AD31ABB62FEF7CEFBF0EE407A65
:104410006A4BC3ED007A6A4B00221A80694B4FF059
:1044200000021A60684B4FF000021A60674B1B884D
:104430001A46BB6A934208D2644B1A88BB6A9BB285
:10444000D31A9AB2624B1A808EE1614B00221A8015
:10445000584B02221A705F4B1B685F4A13605F4A19
:10446000FB6A13605E4B4FF000021A604F4B1B78E3
:10447000DBB2072B0BD0594B1B68FA6AD31A41F2F7
:104480007072934203D90220FFF7F0FE6CE1494BB2
:104490001B78DBB2032B42D1524B1B68FA6AD31A4A
:1044A000BB60BB68B3F5967F03D30120FFF7DEFE48
:1044B0005AE1BB6807EE903AB8EE677ADFED4A6AD8
:1044C000C7EE267AB7EE007A77EE677AC7ED017A03
:1044D000464B93ED007AD7ED017A67EE277A374B9A
:1044E000C3ED007A424B93ED007AD7ED017A67EE87
:1044F000277A344BC3ED007A324BD3ED007AFDEED0
:10450000E77A17EE903A1AB22D4B1A802D4B1B68A2
:104510002D4A1360374B4FF000021A6024E12D4BF7
:1045200093ED007A2C4BD3ED007A77EE677AC7EDE6
:10453000097A314B93ED007AD7ED097A77EE677AF5
:10454000C7ED087A2C4B1B682C4A13602C4A7B6AF7
:1045500013602C4A3B6A1360D7ED087AF0EEE77AD5
:10456000B0EE007AF4EEC77AF1EE10FA4ED8264B90
:1045700001221A700F4B03221A701A4AFB6A136049
:10458000FEF712FBF0EE407A184BC3ED007A0D4BAC
:104590001B68174A1360154B1B68084A1360E3E059
:1045A000500500205A08002052050020580800201D
:1045B0003C23002051050020A405002054050020C4
:1045C00058050020900500206C0500208400002084
:1045D00080050020C822002084050020A0050020BE
:1045E0008C050020A80500200000964398050020B7
:1045F0009C05002068050020880500205C0500203F
:1046000060050020640500207E050020584B1B68D3
:10461000FB61584BD3ED007A97ED087A67EE277A65
:10462000C7ED067A544B93ED007A544BD3ED007AE4
:1046300027EE277A504BD3ED007AF7EE006A76EE3C
:10464000E76AD7ED067A66EEA77A77EE277A4B4BC4
:10465000C3ED007A4A4BD3ED007A9FED4A7A77EEAC
:10466000877AC7ED057A454B93ED007AD7ED057A49
:1046700067EE277A9FED447A27EE877A434BD3ED96
:10468000006A434BD3ED007A66EEA77A77EE677A3D
:10469000F1EE677AC7ED047A3E4A3B6913603E4A01
:1046A000FB691360D7ED077AF5EEC07AF1EE10FAE8
:1046B0000CDDD7ED047AF0EEE77A97ED077AB4EEE9
:1046C000E77AF1EE10FA01D5012200E00022334B27
:1046D0001A70D7ED070A97ED040AFEF72FFA87ED57
:1046E000040A2F4BD3ED007A97ED047A77EE677AC0
:1046F000C7ED037A2B4BD3ED007AF0EE670A97ED06
:10470000030AFEF71BFA87ED030A254B93ED007AA7
:10471000D7ED037A77EE277A214BC3ED007A204B51
:10472000D3ED007AD7ED070AB0EE670AFEF706FA76
:10473000F0EE407A1A4BC3ED007A194BD3ED007AB4
:10474000FDEEE77A17EE903A1AB2174B1A80144B27
:104750001B68164A1360FEF727FAF0EE407A144BF6
:10476000C3ED007A00E000BF3037BD4680BD00BF1A
:1047700070000020D8000020780000208C05002068
:104780006C0000200080BB4400007A44802200209E
:104790003823002068050020700500207C050020DB
:1047A000900500207C000020580500206C050020AA
:1047B0005405002080B483B000AF00237B6020E06C
:1047C000154A7B6832F813307B80144A7B6832F8D4
:1047D00013309BB21A461346DB00991A7A881346A7
:1047E0005B0013440B440E4A82FB03129210DB174A
:1047F000D31A99B2094A7B6822F813107B680133F7
:104800007B607B68072BDBDD00BF00BF0C37BD463C
:104810005DF8047B704700BFFC2200208800002068
:104820006766666680B400AF504B5B899AB2504BA6
:104830001A80504B1B78002B0DD14D4B1B889AB220
:104840004D4B1A804A4B1B889AB24C4B1A80494BED
:1048500001221A7015E0484B1B889BB21A4613467A
:10486000DB009A1A424B1B889BB219460B465B0031
:104870000B441344424AA2FB0323DB089AB23E4B8B
:104880001A803E4B1B889BB203F5AF739AB23D4B27
:104890001A803A4B1B889BB2B4339AB23A4B1A80B7
:1048A0003A4B1B78DBB2002B3AD1334B1B889AB2C0
:1048B000354B1B889BB29A420ED2304B1B889BB261
:1048C0001A4613469B019B1A2B4A128892B2134434
:1048D0009B099AB2294B1A80274B1B889AB2294B05
:1048E0001B889BB29A420AD9294B1B78042B09D802
:1048F000274B1B780133DAB2254B1A7002E0244BA8
:1049000000221A70224B1B78042B29D91F4B01223D
:104910001A70204B01221A701F4B00221A701FE0E0
:10492000154B1B889AB2184B1B889BB29A420AD22D
:10493000194B1B78132B09D8174B1B780133DAB2AC
:10494000154B1A7002E0144B00221A70124B1B78A0
:10495000132B05D90D4B00221A700D4B00221A7033
:1049600000BFBD465DF8047B704700BFFC220020FD
:10497000B0220020F8050020B2220020B42200203E
:10498000CDCCCCCCB6220020B8220020BA22002008
:10499000F9050020BB220020FA05002080B483B076
:1049A00000AF104B01221A700F4B00221A70002327
:1049B0007B600DE00D4A7B6840F6FF7122F8131012
:1049C0000B4A7B68002122F813107B6801337B605F
:1049D0007B68032BEEDD00BF00BF0C37BD465DF8E2
:1049E000047B7047BC2200205B0800209822002036
:1049F000A022002080B483B000AF1F4B1B78DBB235
:104A0000002B32D000237B602CE01C4A7B6832F8FC
:104A100013309AB21A497B6831F813309BB29A422C
:104A200008D2164A7B6832F8133099B2144A7B6870
:104A300022F81310114A7B6832F813309AB21149E8
:104A40007B6831F813309BB29A4208D90B4A7B68D5
:104A500032F8133099B20B4A7B6822F813107B6846
:104A600001337B607B68032BCFDD00BF0C37BD4675
:104A70005DF8047B704700BFBC2200208800002046
:104A800098220020A022002080B582B000AF002331
:104A90007B6016E02B4A7B6832F813309AB22A49C1
:104AA0007B6831F813309BB29A4201D9012100E0B2
:104AB0000021264A7B6813440A461A707B6801333A
:104AC0007B607B68032BE5DD204B1B78DBB2002B82
:104AD0000ED11E4B5B78DBB2002B09D11B4B9B78B0
:104AE000DBB2002B04D1194BDB78DBB2002B1FD0DB
:104AF000164B1B78DAB2164B1A70144B5B78DAB28D
:104B0000134B5A70114B9B78DAB2114B9A700F4BC2
:104B1000DB78DAB20E4BDA7000F07CF8F0EE407A17
:104B20000C4BC3ED007A0B4B1B680B4A136004E07F
:104B3000084B4FF000021A6000BF00BF0837BD46A7
:104B400080BD00BF88000020A82200209022002005
:104B5000942200208C2200208822002080B483B080
:104B600000AF264B00221A7000237B6039E0244AF4
:104B70007B6832F813309AB222497B6831F81330DF
:104B80009BB29A4222D91E4A7B6832F813309BB2FC
:104B900019461C4A7B6832F813309BB2CB1A782B2B
:104BA00014D9174A7B6832F813309BB21946154A5C
:104BB0007B6832F813309BB20B44DA0F13445B105E
:104BC00099B2114A7B6822F8131007E00F4A7B68FC
:104BD00032F813100C4A7B6822F813107B680133FB
:104BE0007B607B68032BC2DD094B01221A7000BF7A
:104BF0000C37BD465DF8047B704700BFBC22002027
:104C0000A022002098220020A822002040A4010811
:104C10005B08002080B48BB000AF3B1D00221A60FF
:104C20005A609A60DA604FF000037B624FF0000335
:104C30003B620023FB6190E05C4AFB6932F8133071
:104C40009AB25B49FB6931F813309BB29A4208D1A2
:104C5000FB699B0028333B44243B4FF000021A6061
:104C600078E0524AFB6932F813309BB21946504A39
:104C7000FB6932F813309BB2CB1A07EE903AF8EE8C
:104C8000E77AC7ED057A4B4AFB6932F813309BB2DD
:104C90001946474AFB6932F813309BB2CB1A07EE2C
:104CA000903AF8EEE76A97ED057AC6EE877AFB69E7
:104CB0009B0028333B44243BC3ED007AFB699B00F7
:104CC00028333B44243BD3ED007AB7EE007AF4EE70
:104CD000C77AF1EE10FA07DDFB699B0028333B44ED
:104CE000243B4FF07E521A60FB699B0028333B4403
:104CF000243BD3ED007AF5EEC07AF1EE10FA07D539
:104D0000FB699B0028333B44243B4FF000021A60B0
:104D1000FB699B0028333B44243B93ED007A264AF1
:104D2000FB699B001344D3ED007A67EE277A97ED79
:104D3000097A77EE277AC7ED097AFB699B00283359
:104D40003B44243BD3ED007A97ED087A77EE277A3F
:104D5000C7ED087AFB690133FB61FB69032B7FF721
:104D60006BAF4FF00003BB61D7ED087AF5EEC07A68
:104D7000F1EE10FA0DDDD7ED096AD7ED087A86EE6F
:104D8000A77AF0EE046AC7EE267AF1EE677AC7EDED
:104D9000067A0A4ABB691360BB6907EE903AB0EE27
:104DA000670A2C37BD465DF8047B7047A0220020BF
:104DB000982200208800002048A4010888220020B2
:104DC00080B489B000AF87ED050AF960BA607B60F6
:104DD00003467B82BB681B68002B05D1BB68FA6861
:104DE0001A607B6801221A707B681B78002B03D045
:104DF000204B1B889BB202E01F4B1B889BB2FB839E
:104E0000BB681B68FA68D21AFB8B9A420CD3BB684A
:104E1000FA681A607B681B78002B0CBF0123002303
:104E2000DBB21A467B681A70144B1B889BB2BB839B
:104E3000B7F91220B7F91C309A4206DCB7F91220F4
:104E4000B7F91C305B429A4202DA4FF0000307E0E8
:104E50007B681B78002B01D07B6901E04FF00003D9
:104E600007EE903AB0EE670A2437BD465DF8047B42
:104E7000704700BF980000209A0000209C0000208E
:104E800080B500AF00F05AF900BF80BD80B588B092
:104E900000AF78607B681B781BB21B021AB27B687C
:104EA00001331B781BB213431AB28A4B1A807B68FA
:104EB00002331B781BB21B021AB27B6803331B78C8
:104EC0001BB213431AB2844B1A807B6804331B78DD
:104ED0001BB21B021AB27B6805331B781BB213434B
:104EE0001AB27E4B1A807B680A331B781BB21B02F6
:104EF0001AB27B680B331B781BB213431AB2784B80
:104F00001A807B680C331B781BB21B021AB27B68B9
:104F10000D331B781BB213431AB2724B1A80704BBD
:104F20001B881BB207EE903AB8EEE77A6E4BD3EDD2
:104F3000007A37EE677ADFED6D6AC7EE267AF1EE1A
:104F4000677AC7ED077A674B1B881BB207EE903A6A
:104F5000B8EEE77A664BD3ED007A37EE677ADFED8D
:104F6000636AC7EE267AC7ED067A5A4B1B881BB2D6
:104F700007EE903AB8EEE77A5E4BD3ED007A77EE23
:104F8000676A564B1B881BB207EE903AB8EEE77A79
:104F9000594BD3ED007A77EE677AF0EE670AB0EE00
:104FA000660A13F083FBF0EE407A9FED547A67EEC9
:104FB000877AC7ED057A474B1B881BB207EE903AFC
:104FC000B8EEE77A4B4BD3ED007A37EE677ADFED38
:104FD0004C6AC7EE267A9FED4B7A67EE877AC7ED6B
:104FE000047A494BD3ED007A9FED487A67EE877AD1
:104FF000C7ED037A464AFB691360464ABB691360F2
:10500000D7ED077A9FED447A27EE877A3E4BD3EDB2
:10501000007A37EE277A414BD3ED007A27EE277AD4
:105020003E4BD3ED007AF7EE006A76EEE76AD7EDF5
:10503000057A66EEA77A77EE277A334BC3ED007ACE
:10504000D7ED067A9FED347A27EE877A344BD3ED8D
:10505000007A77EE277A324BC3ED007A97ED030A98
:1050600013F06AFBF0EE407A9FED267A67EE877ABE
:1050700097ED047A77EE677A2A4BC3ED007A294BD5
:10508000D3ED007A9FED247A27EE877A264BD3ED75
:10509000007A77EE277A244BC3ED007A0D4B1B88FC
:1050A0001BB29AB2214B1A800B4B1B881BB29AB2CF
:1050B0001F4B1A80094B1B881BB29AB21D4B1A80DA
:1050C00007F08EFB03461C4A136000BF2037BD4625
:1050D00080BD00BF80230020822300208423002085
:1050E0008623002088230020D422002000000343D0
:1050F000D8220020CC220020D0220020CC2E6542D5
:10510000000080460AE81C41C022002035FA8E3C8F
:1051100034230020382300200AD7233C60000020DD
:10512000C822002040230020442300202C230020FC
:105130002E230020302300203C23002090B585B092
:1051400000AF0023FB7372B600BF124B1B78DBB2BB
:10515000002B09D0104B3C460FCB07C423800D4BCE
:1051600000221A700123FB7362B600BFFB7B002B89
:1051700006D10A4B1B680133084A1360002304E080
:105180003B461846FFF782FE012318461437BD46FA
:1051900090BD00BF0D230020EC2200202023002022
:1051A00080B584B002AF2D4B1B78DBB2022B02D14D
:1051B0002A4B00221A70294B1B78DBB2002B05D03A
:1051C000274B1B680133264A136043E0254B1B78AD
:1051D000DBB2002B0CD124480AF006FB0346202B3F
:1051E00006D1214B1B689B6903F00203022B05D1FA
:1051F0001B4B1B6801331A4A13602BE0174B01222B
:105200001A700E230193194B009301233B22D021E6
:10521000154809F0C9FD0346FB71FB79002B05D148
:10522000134B1B680133124A136013E0FB79022B06
:1052300008D10B4B1B680133094A1360074B00224E
:105240001A7007E00B4B1B6801330A4A1360034BCB
:1052500002221A700837BD4680BD00BF0C23002013
:10526000182300204A23002080240020DC22002074
:10527000102300201C23002080B400AF1D4B1B789E
:10528000DBB2002B01D001232EE01B4B1B78013336
:10529000DAB2194B1A70184B1B78002B02D1164B3F
:1052A00001221A70154B00221A80154B00221A8019
:1052B000144B00221A70144B00221A60134B002268
:1052C0001A60134B00221A60124B00221A60124B14
:1052D00000221A60114B00221A60114B00221A6042
:1052E000044B01221A7000231846BD465DF8047B6A
:1052F000704700BF281400202E1400202A1400201C
:105300002C1400202F14002030140020341400200E
:10531000381400203C1400204014002044140020C5
:105320004814002080B483B000AF2A4B1B680133BF
:10533000284A1360284B1B78DBB2012B44D1274B42
:105340001B88B3F5FA7F09D3254B00221A80254B21
:1053500000221A70204B02221A7036E01F4B1B8865
:105360001A4613465B0013445B001F4A13447B60DC
:105370001A4B1A887B681A801C4B1B881AB27B68F0
:105380005A801B4BD3ED007A9FED1A7A67EE877A2D
:10539000FDEEE77A17EE903A1AB27B689A800F4BCF
:1053A0001B8801339AB20D4B1A800C4B1B88B3F546
:1053B000FA7F0AD30A4B00221A800A4B00221A7085
:1053C000054B02221A7000E000BF0C37BD465DF8A5
:1053D000047B704730140020281400202A14002079
:1053E0002C1400202F14002070080020802300209F
:1053F000C02200200000C84280B592B000AF6A4BC6
:105400001B78DBB2022B05D0674B1B78DBB2032B7A
:1054100040F0C480654B1B680133644A1360644BE1
:1054200093F85832DBB2002B05D1624B1B68013375
:10543000604A1360B5E05E4B93F85632DBB2032B43
:1054400005D95D4B1B6801335B4A1360A9E0564BDD
:1054500003221A70594B1B88B3F5FA7F30D3584B8F
:105460001B78042B03D9504B00221A7099E0554B3E
:105470001B783B70F4237B700123BB703A460323F7
:105480000021472006F01CFC0346002B12D04E4B97
:105490001B6801334C4A1360494B1B780133DAB265
:1054A000474B1A70464B1B78042B79D93E4B002290
:1054B0001A7075E0454B1B680133444A13606FE076
:1054C0003E4B1B88C3F5FA73A7F84630B7F8463051
:1054D000092B03D8B7F84630DBB200E0092387F880
:1054E0004530384B1B783B71344B1B88384AA2FB44
:1054F00003235B089BB2DBB27B71F423BB710123F6
:10550000FB712E4B1B88DBB23B722C4B1B881B0A9A
:105510009BB2DBB27B7297F84530BB72274B1B887E
:105520001A4613465B0013445B002A4A991897F801
:10553000452013465B0013445B001A463B1D0733AE
:1055400018460FF082FD97F845309BB21A4652007C
:1055500013445B009BB20733A7F84230B7F84230E0
:10556000DBB23A1D0021462006F0AAFB0346002BC1
:105570000ED0194B1B680133174A136097F845305A
:105580009AB20E4B1B8813449AB20C4B1A8008E057
:105590000E4B1B6801330D4A136002E000BF00E0B0
:1055A00000BF4837BD4680BD2814002034140020B9
:1055B000FC05002040140020441400202C1400207E
:1055C0002F1400202E1400203C140020481400202A
:1055D000398EE338700800203814002080B400AF02
:1055E000114B00221A70114B00221A70104B00222E
:1055F0001A70104B00221A700F4B00221A800F4BAA
:1056000000221A700E4B1B780133DAB20C4B1A7061
:105610000B4B1B78002B02D1094B01221A7000BFE3
:10562000BD465DF8047B7047702200207122002087
:105630007222002073220020742200207622002093
:105640007722002080B483B000AF0346FB80164B66
:105650001B78DBB2002B01D001231EE0134B1B781B
:10566000082B01D9022318E0114B1B78002B02D123
:105670000F4B01221A700D4B1A780E4B1A700D4BFE
:105680001B7819460C4AFB8822F811300B4B00227C
:105690001A70054B01221A70002318460C37BD46BC
:1056A0005DF8047B704700BF70220020712200204B
:1056B00077220020722200204C1400207322002048
:1056C00080B483B000AF2B4B1B78DBB2012B4AD1E7
:1056D000294B1B78312B09D9284B1B780133DAB2BF
:1056E000264B1A70234B00221A703DE0244B1B7886
:1056F0001946214B1B781A46322301FB03F313444E
:10570000DB00204A13447B601D4B1A787B681A70BB
:105710001B4B1B781A461C4B33F812207B68A3F8EE
:105720000120154B1A787B68DA70184B9B899AB266
:105730007B689A80154B1B899AB27B68DA800E4B86
:105740001B780133DAB20C4B1A700B4B1B78312BE0
:105750000AD90A4B1B780133DAB2084B1A70054B91
:1057600000221A7000E000BF0C37BD465DF8047BD4
:10577000704700BF70220020732200207122002099
:1057800072220020601400204C14002088000020A9
:1057900080B400AF0A4B1B78DBB2002B01D0012391
:1057A00009E0084B00221A80074B00221A70044BB4
:1057B00002221A7000231846BD465DF8047B70472C
:1057C00070220020742200207622002080B598B03C
:1057D00000AF7F4B1B781A46920013441A46910083
:1057E0001A460B4613445B00A7F85C30794B1B78D4
:1057F000DBB2022B05D0774B1B78DBB2032B40F0DA
:10580000DE80754B93F85832DBB2002B00F0D98064
:10581000714B93F85632DBB2032B00F2D2806D4B02
:1058200003221A706D4B1B88B7F85C209A4233D85C
:105830006B4B1B78042B03D9664B00221A70C3E014
:10584000684B1B783B73624B1B787B733223BB73B3
:10585000B7F85C30DBB2FB73B7F85C301B0A9BB265
:10586000DBB23B7407F10C02052300214B2006F04C
:1058700027FA0346002B00F0A680594B1B78013312
:10588000DAB2574B1A70564B1B78042B40F29B80B0
:10589000504B00221A7096E0504B1B88B7F85C20E2
:1058A000D31AA7F85A30B7F85A30072B03D8B7F8ED
:1058B0005A30DBB200E0072387F85930494B1B7898
:1058C0003B75434B1B787B753223BB75B7F85C3057
:1058D000DBB2FB75B7F85C301B0A9BB2DBB23B76E0
:1058E0003E4B1B88DBB27B763C4B1B881B0A9BB272
:1058F000DBB2BB7697F85930FB76002387F85F3030
:105900003EE097F85F309AB2344B1B881344A7F8F7
:105910005630B7F85630344AA2FB03231B099BB21A
:1059200087F85530B7F856302F4AA2FB03121209F8
:10593000322101FB02F29B1A9BB287F8543097F890
:10594000552097F854302949322000FB02F21344C5
:105950003A1DDB000B4493E8030082E8030097F84C
:105960005F300133DB0007F1140213441A463B1D7C
:1059700003CB1060516097F85F30013387F85F30D8
:1059800097F85F2097F859309A42BAD397F8593070
:105990000133DBB2DB00DBB207F1140200214A2045
:1059A00006F08EF90346002B0ED097F859309AB2C4
:1059B0000A4B1B8813449AB2084B1A8004E000BFBC
:1059C00002E000BF00E000BF6037BD4680BD00BF01
:1059D0007122002070220020FC050020742200208B
:1059E00076220020772200201F85EB5160140020D2
:1059F0002DE9F0432DED028B9BB006AF744B1B7865
:105A0000DBB2002B01F04483724B1B78DBB2002B1E
:105A100001F03E83704B1B78DBB2002B06D06F4B3E
:105A20001B6801336D4A136001F033BB002004F0A2
:105A3000E5FE6B4B1B78DBB2002B01D0012300E0AD
:105A4000002387F82B30664B5B78DBB2002B01D04C
:105A5000012300E0002387F82A30614B9B78DBB2FA
:105A6000002B01D0012300E0002387F829305C4B94
:105A7000DB78DBB2002B01D0012300E0002387F8A4
:105A80002830584B1B78574B1B78DBB20C2B02D9B4
:105A9000544B00221A70534B1B78DBB2524A14212C
:105AA00052480FF079F90021002004F01FFF012275
:105AB0004F494E4804F0AEFF4A4B1B78DBB20C2B2B
:105AC00001F2E78201A252F823F000BF015B000857
:105AD0000D5C0008915D0008855E0008B55F000858
