:020000040800F2
:1000000000500020C10E0008350E00083D0E00080B
:10001000450E00084D0E0008550E000800000000B7
:100020000000000000000000000000005D0E00085D
:10003000690E000800000000750E0008810E00081F
:10004000090F0008090F0008090F0008090F000830
:10005000090F0008090F0008090F0008090F000820
:10006000090F0008090F0008090F00088D0E00088D
:10007000090F0008090F0008090F0008090F000800
:10008000090F0008090F0008090F0008090F0008F0
:10009000A10E0008090F0008090F0008090F000849
:1000A000090F0008090F0008090F0008090F0008D0
:1000B000090F0008090F0008090F0008090F0008C0
:1000C000090F0008090F0008090F0008090F0008B0
:1000D000090F0008090F0008090F0008090F0008A0
:1000E000090F0008090F0008090F000800000000B0
:1000F0000000000000000000000000000000000000
:0C01000000000000000000005FF808F1A3
:10010C0010B5054C237833B9044B13B10448AFF345
:10011C0000800123237010BD84010020000000002A
:10012C00B099000808B5034B1BB103490348AFF362
:10013C00008008BD0000000088010020B099000874
:10014C0080B500AF00F0DCFE00F04EF800F012FAC3
:10015C0000F0F2F900F0A6F800F074F900F0C2F922
:10016C0008F07EFF00F040F900F062FA00F020FF8A
:10017C000346184A13604FF40051174801F03EFD36
:10018C000A210A2000F0BCFB144BDBB201221449FB
:10019C00184600F0CBFB1E210A2000F0B1FB012217
:1001AC000F49104800F040FC00F006FB00F000FF87
:1001BC000246084B1B68D31AB3F5FA7FF6D300F04E
:1001CC00F7FE0346034A13604FF40051024801F056
:1001DC0015FDEBE7F8020020001001402C9A0008F6
:1001EC0000000020349A000880B594B000AF07F1ED
:1001FC00280328220021184609F0A8FB07F1140354
:10020C0000221A605A609A60DA601A613B1D002263
:10021C001A605A609A60DA600123BB624FF4803333
:10022C00FB6200233B630123BB6302237B644FF41B
:10023C008033BB644FF4E013FB6407F128031846CA
:10024C0004F020F80346002B01D000F0EBF90F234B
:10025C007B610223BB610023FB614FF480633B6233
:10026C0000237B6207F114030221184604F08CFA78
:10027C000346002B01D000F0D5F912237B604FF41C
:10028C000043FB6000233B613B1D184604F00AFC55
:10029C000346002B01D000F0C5F900BF5037BD4616
:1002AC0080BD000080B584B000AF3B1D00221A60F9
:1002BC005A609A604A4B4B4A1A60494B4FF4807211
:1002CC009A60474B00221A73454B00221A75444B17
:1002DC004FF46022DA61424B00225A60404B0822F4
:1002EC001A613F4800F06EFE0346002B01D000F06F
:1002FC0099F900237B600123BB600023FB603B1D4D
:10030C001946374800F036FF0346002B01D000F0A9
:10031C0089F901237B600223BB603B1D19463048E1
:10032C0000F028FF0346002B01D000F07BF90223DC
:10033C007B600323BB603B1D1946294800F01AFF64
:10034C000346002B01D000F06DF903237B600423DE
:10035C00BB603B1D1946224800F00CFF0346002BE6
:10036C0001D000F05FF904237B600523BB603B1DCB
:10037C0019461B4800F0FEFE0346002B01D000F08E
:10038C0051F905237B600623BB603B1D19461448BD
:10039C0000F0F0FE0346002B01D000F043F90623D9
:1003AC007B600723BB603B1D19460D4800F0E2FE45
:1003BC000346002B01D000F035F907237B6008239E
:1003CC00BB603B1D1946064800F0D4FE0346002BCB
:1003DC0001D000F027F900BF1037BD4680BD00BF2B
:1003EC00A00100200024014080B500AF124B134A3D
:1003FC001A60114B124A5A600F4B00229A600E4B36
:10040C000022DA600C4B4FF480421A610A4B002236
:10041C005A61094B00229A61074B0022DA61064BA4
:10042C0000221A62044801F003FC0346002B01D0A1
:10043C0000F0F8F800BF80BD14020020005400400A
:10044C00801A060080B586B000AF07F108030022C1
:10045C001A605A609A60DA603B4600221A605A6051
:10046C001E4B1F4A1A601D4B00225A601B4B002268
:10047C009A601A4B4FF6FF72DA60184B00221A6121
:10048C00164B00225A61154B00229A61134804F056
:10049C00BFFB0346002B01D000F0C4F84FF480538F
:1004AC00BB6007F1080319460C4804F000FC034636
:1004BC00002B01D000F0B6F800233B6000237B60DA
:1004CC003B461946054804F0BDFD0346002B01D000
:1004DC0000F0A8F800BF1837BD4680BD68020020A8
:1004EC00002C014080B500AF114B124A1A60104B22
:1004FC004FF4E1325A600E4B00229A600C4B0022F2
:10050C00DA600B4B00221A61094B0C225A61084B22
:10051C0000229A61064B0022DA61054804F0F0FDD6
:10052C000346002B01D000F07DF800BF80BD00BF5A
:10053C00B00200200038014080B582B000AF0C4BF7
:10054C005B690B4A43F001035361094B5B6903F090
:10055C0001037B607B68002200210B2001F01BF85B
:10056C000B2001F034F800BF0837BD4680BD00BF3A
:10057C000010024080B588B000AF07F110030022D4
:10058C001A605A609A60DA60244B9B69234A43F0E4
:10059C0010039361214B9B6903F01003FB60FB6814
:1005AC001E4B9B691D4A43F0200393611B4B9B69B7
:1005BC0003F02003BB60BB68184B9B69174A43F0E0
:1005CC0004039361154B9B6903F004037B607B6808
:1005DC00124B9B69114A43F0080393610F4B9B69C3
:1005EC0003F008033B603B6800224FF400510C48B9
:1005FC0001F0ECFA4FF400533B6101237B610023C3
:10060C00BB610223FB6107F110031946044801F09A
:10061C0059F900BF2037BD4680BD00BF0010024015
:10062C000010014080B400AF72B600BF00BFFDE700
:10063C0080B582B000AF00F01DFA44F620630122B1
:10064C0078215B4801F036FD0346002B01D00023D6
:10065C00A9E040F6C4137B6002E07B68013B7B6041
:10066C007B68002BF9D1AE220021782000F07CFAB7
:10067C0020220021782000F077FA10220021782027
:10068C0000F072FAB0220021782000F06DFAC82236
:10069C000021782000F068FA00220021782000F078
:1006AC0063FA10220021782000F05EFA402200212B
:1006BC00782000F059FA81220021782000F054FAB9
:1006CC00FF220021782000F04FFAA122002178208F
:1006DC0000F04AFAA6220021782000F045FAA82260
:1006EC000021782000F040FA3F220021782000F011
:1006FC003BFAA4220021782000F036FAD322002104
:10070C00782000F031FA00220021782000F02CFA39
:10071C00D5220021782000F027FAF0220021782041
:10072C0000F022FAD9220021782000F01DFA2222B2
:10073C000021782000F018FADA220021782000F04D
:10074C0013FA12220021782000F00EFADB2200218D
:10075C00782000F009FA20220021782000F004FA19
:10076C008D220021782000F0FFF91422002178203E
:10077C0000F0FAF9AF220021782000F0F5F92E22D2
:10078C000021782000F0F0F9002000F043F800F090
:10079C0013F8084B00221A80064B00225A80054B96
:1007AC0001225A71012318460837BD4680BD00BF8F
:1007BC0014020020FC06002080B582B000AF00239C
:1007CC00FB711DE0FB79503BDBB21A46002178200F
:1007DC0000F0CAF900220021782000F0C5F910229F
:1007EC000021782000F0C0F9FB79DB01084A1A449B
:1007FC0080234021782000F051F9FB790133FB7103
:10080C00FB79072BDED900BF00BF0837BD4680BD82
:10081C00FC02002080B582B000AF0346FB71FB796F
:10082C00002B01D1002300E0FF234FF48062194616
:10083C00034809F08BF800BF0837BD4680BD00BFE8
:10084C00FC02002080B483B000AF0346FB800B4653
:10085C00BB801346FB70FB887F2B48D8BB883F2B93
:10086C0045D8254B1B79002B06D0FB78002B0CBFF1
:10087C0001230023DBB2FB70FB78012B1AD1FA8821
:10088C00BB88DB0898B20346DB0113441B4AD35CDC
:10089C005AB2BB8803F00703012101FA03F35BB2E0
:1008AC00134359B2FA880346DB011344C9B2134A05
:1008BC00D1541DE0FA88BB88DB0898B20346DB01F3
:1008CC0013440E4AD35C5AB2BB8803F007030121D0
:1008DC0001FA03F35BB2DB435BB2134059B2FA8803
:1008EC000346DB011344C9B2044AD15400E000BFF3
:1008FC000C37BD4680BC7047FC060020FC02002073
:10090C0080B483B000AF03460A46FB801346BB801D
:10091C00054AFB881380044ABB88538000BF0C3700
:10092C00BD4680BC704700BFFC06002080B586B079
:10093C0000AF03463960FB711346BB71394B1B8802
:10094C001A463B681B7813447F2B07DC354B5B88BE
:10095C001A463B685B7813443F2B01DD00235DE0B6
:10096C0000237B614BE03B685A68FB79203B39687C
:10097C00497801FB03F319467B690B445B00134474
:10098C001B88FB6000233B6130E0FA683B6902FA8C
:10099C0003F303F40043002B10D0224B1A883B695D
:1009AC009BB2134498B21F4B5A887B699BB2134479
:1009BC009BB2BA791946FFF745FF14E0194B1A8818
:1009CC003B699BB2134498B2164B5A887B699BB215
:1009DC00134499B2BB79002B0CBF01230023DBB26B
:1009EC001A46FFF72FFF3B6901333B613B681B78CD
:1009FC001A463B699342C8D37B6901337B613B68E0
:100A0C005B781A467B699342ADD3064B1B883A68D8
:100A1C00127813449AB2034B1A80FB791846183794
:100A2C00BD4680BDFC06002080B584B000AFF860E8
:100A3C00B9601346FB7112E0FB681B78FA79B96850
:100A4C001846FFF773FF03461A46FB681B789A4259
:100A5C0002D0FB681B7808E0FB680133FB60FB6885
:100A6C001B78002BE8D1FB681B7818461037BD4665
:100A7C0080BD000080B483B000AF074B7B6002E008
:100A8C007B68013B7B607B68002BF9D100BF00BF0A
:100A9C000C37BD4680BC704790D0030090B5C7B0F2
:100AAC0002AF0446084607F58871A1F588710A6003
:100ABC00194607F58873A3F2091322461A7007F535
:100ACC008873A3F5857302461A7007F58873A3F52E
:100ADC0086730A461A8007F58873A3F5827307F5A7
:100AEC008872A2F5857212781A70002387F80F317C
:100AFC0015E097F80F3107F58872A2F58872126825
:100B0C001A4497F80F310133117807F58872A2F562
:100B1C008272D15497F80F31013387F80F3197F85F
:100B2C000F319BB207F58872A2F5867212889A4231
:100B3C00DFD807F58873A3F209131B7899B207F570
:100B4C008873A3F586731B8801339BB207F10C02E3
:100B5C000A200090034801F0AFF900BF07F58A772F
:100B6C00BD4690BD1402002080B586B002AF03468E
:100B7C00FB710B46BB7113467B71BB793B737B7965
:100B8C007B73FB7999B207F10C020A2300930223C1
:100B9C00034801F091F900BF1037BD4680BD00BF7E
:100BAC001402002080B485B000AF154B9B69144A29
:100BBC0043F001039361124B9B6903F00103BB608B
:100BCC00BB680F4BDB690E4A43F08053D3610C4B6F
:100BDC00DB6903F080537B607B680A4B5B68FB60CE
:100BEC00FB6823F0E063FB60FB6843F08063FB6011
:100BFC00044AFB68536000BF1437BD4680BC704785
:100C0C00001002400000014080B588B000AF786051
:100C1C0007F1100300221A605A609A60DA607B6850
:100C2C001B68284A934249D1274B9B69264A43F4B7
:100C3C0000739361244B9B6903F40073FB60FB68A6
:100C4C00214B9B69204A43F0040393611E4B9B6923
:100C5C0003F00403BB60BB68FF233B6103237B6190
:100C6C0007F110031946194800F02CFE184B194ACD
:100C7C001A60174B00225A60154B00229A60144BD5
:100C8C008022DA60124B4FF480721A61104B4FF4D1
:100C9C0080625A610E4B00229A610D4B0022DA6180
:100CAC000B4800F0AFFC0346002B01D0FFF7BAFC59
:100CBC007B68074A1A62064A7B68536200BF20377A
:100CCC00BD4680BD002401400010024000080140D8
:100CDC00D00100200800024080B588B000AF7860D9
:100CEC0007F1100300221A605A609A60DA607B6880
:100CFC001B68154A934223D1144B9B69134A43F04A
:100D0C0008039361114B9B6903F00803FB60FB68BC
:100D1C00C0233B6112237B610323FB6107F11003AA
:100D2C0019460B4800F0CEFD084BDB69074A43F42B
:100D3C000013D361054BDB6903F40013BB60BB6884
:100D4C0000BF2037BD4680BD00540040001002405B
:100D5C00000C014080B485B000AF78607B681B68E4
:100D6C00094A93420BD1094B9B69084A43F400632F
:100D7C009361064B9B6903F40063FB60FB6800BF47
:100D8C001437BD4680BC7047002C01400010024057
:100D9C0080B588B000AF786007F1100300221A60AC
:100DAC005A609A60DA607B681B681C4A934231D1A6
:100DBC001B4B9B691A4A43F480439361184B9B6904
:100DCC0003F48043FB60FB68154B9B69144A43F0AA
:100DDC0004039361124B9B6903F00403BB60BB6873
:100DEC004FF400733B6102237B610323FB6107F12A
:100DFC00100319460B4800F065FD4FF480633B610E
:100E0C0000237B610023BB6107F1100319460548E1
:100E1C0000F058FD00BF2037BD4680BD00380140B2
:100E2C00001002400008014080B400AF00BFFDE795
:100E3C0080B400AF00BFFDE780B400AF00BFFDE79A
:100E4C0080B400AF00BFFDE780B400AF00BFFDE78A
:100E5C0080B400AF00BFBD4680BC704780B400AF0B
:100E6C0000BFBD4680BC704780B400AF00BFBD461C
:100E7C0080BC704780B500AF00F088F800BF80BD23
:100E8C0080B500AF024800F017FC00BF80BD00BF6A
:100E9C00D001002080B500AF024801F0AFFD00BFCB
:100EAC0080BD00BFD013002080B400AF00BFBD4692
:100EBC0080BC7047FFF7F8FF0B480C490C4A002325
:100ECC0002E0D458C4500433C4188C42F9D3094AF4
:100EDC00094C002301E013600432A242FBD308F05A
:100EEC003DFDFFF72DF97047000000208401002024
:100EFC0028A2000884010020C8180020FEE700008A
:100F0C0080B500AF084B1B68074A43F01003136011
:100F1C00032000F035FB0F2000F008F8FFF742FE2D
:100F2C000023184680BD00BF0020024080B582B06F
:100F3C0000AF7860124B1A68124B1B7819464FF4AD
:100F4C007A73B3FBF1F3B2FBF3F3184600F04DFBED
:100F5C000346002B01D001230EE07B680F2B0AD82F
:100F6C00002279684FF0FF3000F015FB064A7B68D1
:100F7C001360002300E0012318460837BD4680BDEE
:100F8C0008000020100000200C00002080B400AFEE
:100F9C00054B1B781A46054B1B681344034A136018
:100FAC0000BFBD4680BC7047100000200407002025
:100FBC0080B400AF024B1B681846BD4680BC70471E
:100FCC000407002080B586B000AF78600023FB7565
:100FDC0000233B610023BB600023FB607B68002B7C
:100FEC0001D10123BEE07B689B68002B7B689B6A68
:100FFC00002B09D17B680022DA627B68002283F81F
:10100C0024207868FFF700FE786800F0ABF90346FF
:10101C00FB757B689B6A03F01003002B40F09980F2
:10102C00FB7D002B40F095807B689B6A23F48853F2
:10103C0023F0020343F002027B689A627B685A68D1
:10104C007B68DB691A437B681B7B5B001343BA68C4
:10105C001343BB607B689B68B3F5807F03D07B68D0
:10106C009B68012B02D14FF4807300E000233A6996
:10107C0013433B617B681B7D012B19D17B681B7B68
:10108C00002B09D17B689B69013B5A033B691343D5
:10109C0043F400633B610BE07B689B6A43F02002E6
:1010AC007B689A627B68DB6A43F001027B68DA62D8
:1010BC007B681B685B6823F469417B681B683A6931
:1010CC000A435A607B681B689A68284B13407A68FD
:1010DC001268B9680B4393607B689B68B3F5807F9B
:1010EC0003D07B689B68012B04D17B681B69013B97
:1010FC001B05FB607B681B68DB6A23F470017B6853
:10110C001B68FA680A43DA627B681B689A68184B9A
:10111C001340BA689A420BD17B680022DA627B6872
:10112C009B6A23F0030343F001027B689A6218E088
:10113C007B689B6A23F0120343F010027B689A626F
:10114C007B68DB6A43F001027B68DA620123FB7582
:10115C0007E07B689B6A43F010027B689A6201236C
:10116C00FB75FB7D18461837BD4680BDFDF7E1FFCA
:10117C00FE0E1FFF80B485B000AF7860396000238D
:10118C00FB730023BB607B6893F82430012B01D1E7
:10119C000223DCE07B68012283F824203B685B6837
:1011AC00062B1CD87B681B68596B3B685A68134626
:1011BC009B001344053B1F2202FA03F3DB43194047
:1011CC003B6818683B685A6813469B001344053B00
:1011DC0000FA03F27B681B680A435A633CE03B68E5
:1011EC005B680C2B1CD87B681B68196B3B685A68B6
:1011FC0013469B001344233B1F2202FA03F3DB43E9
:10120C0019403B6818683B685A6813469B001344A6
:10121C00233B00FA03F27B681B680A431A631BE04A
:10122C007B681B68D96A3B685A6813469B00134459
:10123C00413B1F2202FA03F3DB4319403B68186859
:10124C003B685A6813469B001344413B00FA03F277
:10125C007B681B680A43DA623B681B68092B1CD944
:10126C007B681B68D9683B681A6813465B0013449B
:10127C001E3B072202FA03F3DB4319403B689868D4
:10128C003B681A6813465B0013441E3B00FA03F2DA
:10129C007B681B680A43DA6019E07B681B68196974
:1012AC003B681A6813465B001344072202FA03F3E7
:1012BC00DB4319403B6898683B681A6813465B002F
:1012CC00134400FA03F27B681B680A431A613B68FB
:1012DC001B68102B03D03B681B68112B32D17B6829
:1012EC001B681D4A934225D17B681B689B6803F4DD
:1012FC000003002B26D17B681B689A687B681B68EF
:10130C0042F400029A603B681B68102B1AD1134BF5
:10131C001B68134AA2FB03239A0C13469B0013442D
:10132C005B00BB6002E0BB68013BBB60BB68002B91
:10133C00F9D107E07B689B6A43F020027B689A62D4
:10134C000123FB737B68002283F82420FB7B184667
:10135C001437BD4680BC70470024014008000020B3
:10136C0083DE1B4380B584B000AF78600023FB6044
:10137C007B681B689B6803F00103012B2ED17B68F3
:10138C001B689A687B681B6822F001029A60FFF761
:10139C000FFEF8601BE0FFF70BFE0246FB68D31A4A
:1013AC00022B14D97B681B689B6803F00103012B8B
:1013BC000DD17B689B6A43F010027B689A627B6854
:1013CC00DB6A43F001027B68DA62012307E07B6889
:1013DC001B689B6803F00103012BDCD0002318462B
:1013EC001037BD4680BD000080B485B000AF78607A
:1013FC007B6803F00703FB600C4BDB68BB60BA68CF
:10140C004FF6FF031340BB60FB681A02BB68134323
:10141C0043F0BF6343F40033BB60044ABB68D36042
:10142C0000BF1437BD4680BC704700BF00ED00E024
:10143C0080B400AF044BDB681B0A03F007031846AB
:10144C00BD4680BC704700BF00ED00E080B483B0A7
:10145C0000AF0346FB7197F90730002B0BDBFB79D0
:10146C0003F01F02064997F907305B09012000FAC7
:10147C0002F241F8232000BF0C37BD4680BC7047F8
:10148C0000E100E080B483B000AF03463960FB712B
:10149C0097F90730002B0ADB3B68DAB20C4997F955
:1014AC0007301201D2B20B4483F800230AE03B68E8
:1014BC00DAB20849FB7903F00F03043B1201D2B2F4
:1014CC000B441A7600BF0C37BD4680BC704700BF7A
:1014DC0000E100E000ED00E080B489B000AFF860FE
:1014EC00B9607A60FB6803F00703FB61FB69C3F129
:1014FC000703042B28BF0423BB61FB690433062BB1
:10150C0002D9FB69033B00E000237B614FF0FF3203
:10151C00BB6902FA03F3DA43BB681A407B699A4051
:10152C004FF0FF317B6901FA03F3D9437B680B4021
:10153C00134318462437BD4680BC704780B582B033
:10154C0000AF78607B68013BB3F1807F01D301234E
:10155C000FE00A4A7B68013B53600F214FF0FF30CC
:10156C00FFF790FF054B00229A60044B07221A608C
:10157C00002318460837BD4680BD00BF10E000E0D0
:10158C0080B582B000AF78607868FFF72DFF00BFA0
:10159C000837BD4680BD80B586B000AF0346B96044
:1015AC007A60FB7300237B61FFF742FF78617A68F6
:1015BC00B9687869FFF790FF024697F90F3011462A
:1015CC001846FFF75FFF00BF1837BD4680BD80B5DA
:1015DC0082B000AF0346FB7197F907301846FFF74E
:1015EC0035FF00BF0837BD4680BD80B582B000AF67
:1015FC0078607868FFF7A2FF034618460837BD46A7
:10160C0080BD000080B485B000AF78600023FB6023
:10161C007B68002B01D1012343E07B681B681A46D1
:10162C00224B1344224AA2FB03231B099A007B681A
:10163C001A647B681F4ADA637B68022283F82120D4
:10164C007B681B681B68FB60FB6823F47F5323F0EB
:10165C003003FB607B685A687B689B681A437B6825
:10166C00DB681A437B681B691A437B685B691A4306
:10167C007B689B691A437B68DB691343FA681343E5
:10168C00FB607B681B68FA681A607B6800229A63AF
:10169C007B68012283F821207B68002283F82020BC
:1016AC00002318461437BD4680BC7047F8FFFDBFB9
:1016BC00CDCCCCCC0000024080B584B000AF7860BB
:1016CC007B68DB6B1B68FB607B681B681B68BB6003
:1016DC007B681B6C04229A40FB681340002B4FD094
:1016EC00BB6803F00403002B4AD07B681B681B68A3
:1016FC0003F02003002B07D17B681B681A687B68FA
:10170C001B6822F004021A607B681B68664A9342CD
:10171C0029D07B681B68654A934222D07B681B6882
:10172C00634A93421AD07B681B68624A934212D078
:10173C007B681B68604A93420AD07B681B685F4ACF
:10174C00934202D14FF480030EE04FF080630BE024
:10175C004FF4802308E04FF4804305E04FF480639E
:10176C0002E0402300E00423554A53607B68DB6AA7
:10177C00002B00F094807B68DB6A786898478EE0D9
:10178C007B681B6C02229A40FB681340002B56D0DE
:10179C00BB6803F00203002B51D07B681B681B68ED
:1017AC0003F02003002B0BD17B681B681A687B6845
:1017BC001B6822F00A021A607B68012283F8212040
:1017CC007B681B68384A934229D07B681B68374A70
:1017DC00934222D07B681B68354A93421AD07B68AF
:1017EC001B68344A934212D07B681B68324A93427E
:1017FC000AD07B681B68314A934202D14FF4001324
:10180C000EE04FF000730BE04FF4003308E04FF4A0
:10181C00005305E04FF4007302E0202300E00223A4
:10182C00274A53607B68002283F820207B689B6AE0
:10183C00002B34D07B689B6A786898472FE07B68D4
:10184C001B6C08229A40FB681340002B28D0BB6805
:10185C0003F00803002B23D07B681B681A687B6895
:10186C001B6822F00E021A607B681A6C7B68DB6BBB
:10187C00012101FA02F25A607B6801229A637B68AB
:10188C00012283F821207B68002283F820207B68CA
:10189C001B6B002B04D07B681B6B7868984700BFD0
:1018AC0000BF1037BD4680BD080002401C0002403E
:1018BC003000024044000240580002406C000240DC
:1018CC000000024080B48BB000AF78603960002318
:1018DC007B6200233B6269E101227B6A02FA03F31B
:1018EC00FB613B681B68FA691340BB61BA69FB6911
:1018FC009A4240F058813B685B689A4A93425ED0AA
:10190C00984A934275D8984A934258D0964A934233
:10191C006FD8964A934252D0944A934269D8944ACB
:10192C0093424CD0924A934263D8924A934246D007
:10193C00904A93425DD8122B2AD8122B59D801A267
:10194C0052F823F0CB190008A5190008B7190008A4
:10195C00F9190008FF190008FF190008FF19000801
:10196C00FF190008FF190008FF190008FF190008EB
:10197C00FF190008FF190008FF190008FF190008DB
:10198C00FF190008FF190008AD190008C11900085B
:10199C00794A934213D02CE03B68DB683B6229E028
:1019AC003B68DB6804333B6224E03B68DB6808334C
:1019BC003B621FE03B68DB680C333B621AE03B6820
:1019CC009B68002B02D104233B6213E03B689B68AD
:1019DC00012B05D108233B627B68FA691A6109E087
:1019EC0008233B627B68FA695A6103E000233B627F
:1019FC0000E000BFBB69FF2B01D87B6801E07B686E
:101A0C0004337B61BB69FF2B02D87B6A9B0002E02D
:101A1C007B6A083B9B003B617B691A680F213B6921
:101A2C0001FA03F3DB431A40396A3B6901FA03F309
:101A3C001A437B691A603B685B6803F08053002B88
:101A4C0000F0B1804D4B9B694C4A43F0010393610C
:101A5C004A4B9B6903F00103BB60BB68484A7B6A35
:101A6C009B08023352F82330FB607B6A03F00303BC
:101A7C009B000F2202FA03F3DB43FA681340FB606E
:101A8C007B68404A934213D07B683F4A93420DD007
:101A9C007B683E4A934207D07B683D4A934201D112
:101AAC00032306E0042304E0022302E0012300E008
:101ABC0000237A6A02F0030292009340FA681343FF
:101ACC00FB602F497B6A9B080233FA6841F823209C
:101ADC003B685B6803F48013002B06D02D4B9A688F
:101AEC002C49BB6913438B6006E02A4B9A68BB698F
:101AFC00DB43284913408B603B685B6803F400139D
:101B0C00002B06D0234BDA682249BB691343CB6008
:101B1C0006E0204BDA68BB69DB431E491340CB60FF
:101B2C003B685B6803F40033002B06D0194B5A68F2
:101B3C001849BB6913434B6006E0164B5A68BB69E6
:101B4C00DB43144913404B603B685B6803F4803300
:101B5C00002B21D00F4B1A680E49BB6913430B6045
:101B6C0021E000BF000032100000311000002210F4
:101B7C000000211000001210000011100010024093
:101B8C000000014000080140000C01400010014021
:101B9C0000140140000401400B4B1A68BB69DB4385
:101BAC00094913400B607B6A01337B623B681A68FE
:101BBC007B6A22FA03F3002B7FF48EAE00BF00BFCA
:101BCC002C37BD4680BC70470004014080B483B004
:101BDC0000AF78600B467B8013467B707B78002BC4
:101BEC0003D07A887B681A6103E07B881A047B68CF
:101BFC001A6100BF0C37BD4680BC704780B485B0FD
:101C0C0000AF78600B467B807B68DB68FB607A8872
:101C1C00FB6813401A04FB68D9437B880B401A43BA
:101C2C007B681A6100BF1437BD4680BC704700004A
:101C3C0080B584B000AF78607B68002B01D10123A4
:101C4C002BE17B6893F83D30DBB2002B06D17B682F
:101C5C00002283F83C207868FFF73EF87B6824224A
:101C6C0083F83D207B681B681A687B681B6822F030
:101C7C0001021A607B681B681A687B681B6842F457
:101C8C0000421A607B681B681A687B681B6822F428
:101C9C0000421A6002F0C0FEF8607B685B68814A03
:101CAC00934207D8FB68804A934294BF01230023D8
:101CBC00DBB206E0FB687D4A934294BF012300230C
:101CCC00DBB2002B01D00123E7E0FB68784AA2FBD2
:101CDC0003239B0CBB607B681B685B6823F03F0194
:101CEC007B681B68BA680A435A607B681B681B6A6E
:101CFC0023F03F017B685B686A4A934202D8BB6859
:101D0C00013309E0BB684FF4967202FB03F3694A96
:101D1C00A2FB03239B0901337A6812680B431362FD
:101D2C007B681B68DB6923F44F4222F0FF027B685F
:101D3C005B685C498B4219D8FB68591E7B685B68F1
:101D4C005B00B1FBF3F3591C40F6FC730B40002B0A
:101D5C000AD0FB68591E7B685B685B00B1FBF3F330
:101D6C000133C3F30B0351E004234FE07B689B6802
:101D7C00002B11D1FB68581E7B6859680B465B0021
:101D8C000B44B0FBF3F30133C3F30B03002B0CBF79
:101D9C0001230023DBB212E0FB68581E7B685968F4
:101DAC000B469B000B4499000B44B0FBF3F301333F
:101DBC00C3F30B03002B0CBF01230023DBB2002B5E
:101DCC0001D0012322E07B689B68002B0ED1FB68BD
:101DDC00581E7B6859680B465B000B44B0FBF3F351
:101DEC000133C3F30B0343F400430FE0FB68581EAD
:101DFC007B6859680B469B000B4499000B44B0FB65
:101E0C00F3F30133C3F30B0343F4404379680968DC
:101E1C001343CB617B681B681B6823F0C0017B6894
:101E2C00DA697B681B6A1A437B681B680A431A6071
:101E3C007B681B689B6823F4034323F0FF037A68D9
:101E4C0011697A68D26811437A6812680B439360FF
:101E5C007B681B68DB6823F0FF017B685A697B6831
:101E6C009B691A437B681B680A43DA607B681B68B2
:101E7C001A687B681B6842F001021A607B680022BA
:101E8C001A647B68202283F83D207B6800221A6349
:101E9C007B68002283F83E20002318461037BD468D
:101EAC0080BD00BFA08601007F841E00FF083D009E
:101EBC0083DE1B43D34D621080B588B002AFF8604F
:101ECC007A601A460B467B8113463B81FFF770F80C
:101EDC007861FB6893F83D30DBB2202B40F0E0805A
:101EEC007B690093192301227049F86800F092FA7B
:101EFC000346002B01D00223D3E0FB6893F83C305F
:101F0C00012B01D10223CCE0FB68012283F83C2099
:101F1C00FB681B681B6803F00103012B07D0FB68EF
:101F2C001B681A68FB681B6842F001021A60FB68A8
:101F3C001B681A68FB681B6822F400621A60FB6855
:101F4C00212283F83D20FB68102283F83E20FB6899
:101F5C0000221A64FB687A685A62FB683A895A85CF
:101F6C00FB685B8D9AB2FB681A85FB68504ADA6293
:101F7C0079897B693A6AF86800F0CAF90346002B44
:101F8C0001D001238DE000233B61FB681B685B697A
:101F9C003B61FB681B689B693B613B6966E07A6946
:101FAC00396AF86800F050FB0346002B0DD0FB6833
:101FBC001B6C042B07D1FB681B681A68FB681B6839
:101FCC0042F400721A6001236BE0FB685B6A1A78BA
:101FDC00FB681B681A61FB685B6A5A1CFB685A62D7
:101FEC00FB685B8D9BB2013B9AB2FB685A85FB6820
:101FFC001B8D013B9AB2FB681A85FB681B685B69F9
:10200C0003F00403042B1BD1FB681B8D002B17D092
:10201C00FB685B6A1A78FB681B681A61FB685B6A71
:10202C005A1CFB685A62FB685B8D9BB2013B9AB2EF
:10203C00FB685A85FB681B8D013B9AB2FB681A85BD
:10204C007A69396AF86800F047FB0346002B0DD01B
:10205C00FB681B6C042B07D1FB681B681A68FB68B8
:10206C001B6842F400721A6001231AE0FB681B8D96
:10207C00002B94D1FB681B681A68FB681B6842F440
:10208C0000721A60FB68202283F83D20FB68002256
:10209C0083F83E20FB68002283F83C20002300E0FC
:1020AC00022318461837BD4680BD00BF0200100041
:1020BC000000FFFF80B58AB002AFF8607A603B6029
:1020CC000B467B81FEF774FFF8610023BB61FB6854
:1020DC0093F83D30DBB2202B40F01181FB6900936B
:1020EC00192301228849F86800F094F90346002B63
:1020FC0001D0022304E1FB6893F83C30012B01D1A1
:10210C000223FDE0FB68012283F83C20FB681B687E
:10211C001B6803F00103012B07D0FB681B681A68CE
:10212C00FB681B6842F001021A60FB681B681A68A6
:10213C00FB681B6822F400621A60FB68242283F897
:10214C003D20FB6800221A64FB68704ADA62FB6867
:10215C001B681A68FB681B6842F480721A60FB6982
:10216C0000933B6800224FF00111F86800F052F91F
:10217C000346002B0DD0FB681B681B6803F48073AF
:10218C00B3F5807F03D1FB684FF400721A6403230C
:10219C00B6E07B89DBB21A46FB681B6802F0FE02D4
:1021AC001A61FEF705FFF861FB681B685B6903F0B9
:1021BC000203022B0CBF01230023DBB2FB75FB686F
:1021CC001B685B6903F48063B3F5806F0CBF01235C
:1021DC000023DBB2BB7525E0FEF7EAFE0246FB6985
:1021EC00D31A3A689A4202D33B68002B03D1FB689E
:1021FC00A02283F83D20FB681B685B6903F0020397
:10220C00022B0CBF01230023DBB2FB75FB681B68A0
:10221C005B6903F48063B3F5806F0CBF012300236B
:10222C00DBB2BB75FB6893F83D30DBB2A02B05D05D
:10223C00FB7D002B02D1BB7D002BCDD0FB68202277
:10224C0083F83D20FB681B685B6903F00203022BDB
:10225C0029D1FB681B681A68FB681B6842F4007282
:10226C001A6000233B61FB681B685B693B61FB6880
:10227C001B689B693B613B69FB6900931923012235
:10228C002149F86800F0C6F80346002B01D0012361
:10229C0036E0FB68202283F83D20FB68002283F89F
:1022AC003C2000232CE0FB681B681A68FB681B6849
:1022BC0042F400721A60FB681B686FF480625A610A
:1022CC00FB690093192301220F49F86800F0A2F86A
:1022DC000346002B01D0012312E0BB690133BB6123
:1022EC00BA697B689A42FFF432AFFB68202283F80C
:1022FC003D20FB68002283F83C20012300E00223F0
:10230C0018462037BD4680BD020010000000FFFFBC
:10231C0080B588B002AFF8607A603B600B467B8179
:10232C00FB68DB6A7B617B69082B06D07B69012B20
:10233C0003D07B6913F5803F08D1FB681B681A68D2
:10234C00FB681B6842F480721A600BE0FB681B6B25
:10235C00122B07D1FB681B681A68FB681B6842F4D8
:10236C0080721A603B6800937B6800224FF0011169
:10237C00F86800F04FF80346002B0DD0FB681B6883
:10238C001B6803F48073B3F5807F03D1FB684FF4B3
:10239C0000721A64032335E0FB681B69B3F5804FA8
:1023AC0008D17B89DBB21A46FB681B6802F0FE027F
:1023BC001A611BE07B89DB11DBB203F00603DBB295
:1023CC0063F00F03DAB2FB681B681A613B687A682A
:1023DC000E49F86800F098F80346002B01D0012351
:1023EC0010E07B89DAB2FB681B681A613B687A687B
:1023FC000749F86800F088F80346002B01D0012348
:10240C0000E0002318461837BD4680BD08000100C7
:10241C000200010080B584B000AFF860B9603B6089
:10242C001346FB7148E03B68B3F1FF3F44D0FEF725
:10243C00BFFD0246BB69D31A3A689A4202D33B6885
:10244C00002B39D1BB681B0CDBB2012B0DD1FB6807
:10245C001B685B69DA43BB6813409BB2002B0CBF53
:10246C0001230023DBB21A460CE0FB681B689B6956
:10247C00DA43BB6813409BB2002B0CBF0123002333
:10248C00DBB21A46FB799A4216D1FB6800221A631A
:10249C00FB68202283F83D20FB68002283F83E2055
:1024AC00FB681B6C43F02002FB681A64FB6800227B
:1024BC0083F83C20012323E0BB681B0CDBB2012B0F
:1024CC000DD1FB681B685B69DA43BB6813409BB298
:1024DC00002B0CBF01230023DBB21A460CE0FB6877
:1024EC001B689B69DA43BB6813409BB2002B0CBF83
:1024FC0001230023DBB21A46FB799A4293D00023C6
:10250C0018461037BD4680BD80B584B000AFF8606A
:10251C00B9607A603B6071E0FB681B685B6903F42F
:10252C008063B3F5806F23D1FB681B681A68FB6866
:10253C001B6842F400721A60FB681B686FF48062BF
:10254C005A61FB6800221A63FB68202283F83D2045
:10255C00FB68002283F83E20FB681B6C43F00402EE
:10256C00FB681A64FB68002283F83C20012367E0B7
:10257C007B68B3F1FF3F41D0FEF71AFD02463B6882
:10258C00D31A7A689A4202D37B68002B36D1BB6887
:10259C001B0CDBB2012B0CD1FB681B685B69DA43AB
:1025AC00BB6813409BB2002B14BF01230023DBB28A
:1025BC000BE0FB681B689B69DA43BB6813409BB25A
:1025CC00002B14BF01230023DBB2002B16D0FB68B9
:1025DC0000221A63FB68202283F83D20FB6800224E
:1025EC0083F83E20FB681B6C43F02002FB681A64E6
:1025FC00FB68002283F83C20012321E0BB681B0C04
:10260C00DBB2012B0CD1FB681B685B69DA43BB683E
:10261C0013409BB2002B14BF01230023DBB20BE051
:10262C00FB681B689B69DA43BB6813409BB2002BA9
:10263C0014BF01230023DBB2002B7FF46DAF00230A
:10264C0018461037BD4680BD80B584B000AFF86029
:10265C00B9607A6034E0F86800F086F80346002B25
:10266C0001D0012334E0BB68B3F1FF3F28D0FEF763
:10267C009FFC02467B68D31ABA689A4202D3BB68A5
:10268C00002B1DD1FB681B685B6903F08003802B5A
:10269C0016D0FB6800221A63FB68202283F83D20C9
:1026AC00FB68002283F83E20FB681B6C43F0200281
:1026BC00FB681A64FB68002283F83C20012307E0C6
:1026CC00FB681B685B6903F08003802BC3D100237C
:1026DC0018461037BD4680BD80B584B000AFF86099
:1026EC00B9607A6034E0F86800F03EF80346002BDD
:1026FC0001D0012334E0BB68B3F1FF3F28D0FEF7D3
:10270C0057FC02467B68D31ABA689A4202D3BB685C
:10271C00002B1DD1FB681B685B6903F00403042BC1
:10272C0016D0FB6800221A63FB68202283F83D2038
:10273C00FB68002283F83E20FB681B6C43F02002F0
:10274C00FB681A64FB68002283F83C20012307E035
:10275C00FB681B685B6903F00403042BC3D10023E3
:10276C0018461037BD4680BD80B483B000AF78608A
:10277C007B681B685B6903F48063B3F5806F1BD1C6
:10278C007B681B686FF480625A617B6800221A6355
:10279C007B68202283F83D207B68002283F83E2052
:1027AC007B681B6C43F004027B681A647B68002214
:1027BC0083F83C20012300E0002318460C37BD466B
:1027CC0080BC704780B584B000AF78607B68002B0C
:1027DC0001D10123E8E07B6893F89132DBB2002B46
:1027EC0006D17B68002283F89022786806F004FEFC
:1027FC007B68032283F891227B6800225A717B68E4
:10280C001B68184602F07DFD7B6818687B680433F2
:10281C000ECB02F053FD0346002B05D07B68022241
:10282C0083F891220123BFE07B681B6800211846C6
:10283C0002F081FD0346002B05D07B68022283F851
:10284C0091220123B0E00023FB733EE0FA7B796810
:10285C0013469B001344DB000B44113301221A7006
:10286C00FA7B796813469B001344DB000B4410334E
:10287C00FA7B1A70FA7B796813469B001344DB00D1
:10288C000B44133300221A70FA7B796813469B00B1
:10289C001344DB000B44203300221A60FA7B796866
:1028AC0013469B001344DB000B44243300221A60B4
:1028BC00FB7B79685A1C13469B001344DB000B44CA
:1028CC0000221A60FB7B0133FB737B681B79FA7B5C
:1028DC009A42BBD30023FB7344E0FA7B796813461E
:1028EC009B001344DB000B4403F2511300221A70BB
:1028FC00FA7B796813469B001344DB000B4403F509
:10290C00A873FA7B1A70FA7B796813469B00134400
:10291C00DB000B4403F2531300221A70FA7B796824
:10292C0013469B001344DB000B4403F5B0730022E9
:10293C001A60FA7B796813469B001344DB000B4446
:10294C0003F5B27300221A60FA7B796813469B0078
:10295C001344DB000B4403F5B47300221A60FB7BB9
:10296C000133FB737B681B79FA7B9A42B5D37B6886
:10297C0018687B6804330ECB02F0E9FC0346002B8D
:10298C0005D07B68022283F8912201230CE07B683E
:10299C0000225A737B68012283F891227B681B68A2
:1029AC00184604F068FF002318461037BD4680BD5A
:1029BC0080B582B000AF78607B6893F89032012BC1
:1029CC0001D1022316E07B68012283F890227B68F8
:1029DC001B68184602F07FFC0121786806F07FFF27
:1029EC007B681B68184604F03CFF7B68002283F868
:1029FC009022002318460837BD4680BD80B588B0AC
:102A0C0000AF78607B681B68184604F03EFFB86125
:102A1C00BB6903F40043002B03D0786800F01AFB69
:102A2C0019E1BB6903F48063002B13D07B681B682E
:102A3C00B3F844309AB27B681B6822F4806292B27D
:102A4C00A3F84420786806F052FD0021786800F065
:102A5C0005F900E1BB6903F48043002B0CD07B68C3
:102A6C001B68B3F844309AB27B681B6822F480422E
:102A7C0092B2A3F84420EEE0BB6903F40053002BA0
:102A8C000CD07B681B68B3F844309AB27B681B6827
:102A9C0022F4005292B2A3F84420DCE0BB6903F4A8
:102AAC008053002B27D07B681B68B3F840309AB258
:102ABC007B681B6822F0040292B2A3F840207B686A
:102ACC001B68B3F840309AB27B681B6822F008028E
:102ADC0092B2A3F84020786806F042FD7B681B6830
:102AEC00B3F844309AB27B681B6822F4805292B2DD
:102AFC00A3F84420AFE0BB6903F40063002B00F0A3
:102B0C0083800023FB7710E07B681B681A46FB7FF1
:102B1C009B001A44FB7F128892B25B0020333B442B
:102B2C0023F8182CFB7F0133FB77FB7F072BEBD9AA
:102B3C007B681B68B3F840309AB27B681B6842F024
:102B4C00010292B2A3F840207B681B68B3F84030B6
:102B5C009AB27B681B6822F0010292B2A3F8402063
:102B6C0000BF7B681B68B3F844309BB203F48063EE
:102B7C00002BF6D07B681B68B3F844309AB27B68A4
:102B8C001B6822F4806292B2A3F844200023FB77E6
:102B9C000FE0FB7F7A6812681146FA7F92000A44B4
:102BAC005B0020333B4433F8183C1380FB7F01332C
:102BBC00FB77FB7F072BECD97B681B68B3F84030A5
:102BCC009AB27B681B6842F0080292B2A3F84020CC
:102BDC007B681B68B3F844309AB27B681B6822F49C
:102BEC00006292B2A3F844207B681B68B3F84030B3
:102BFC009AB27B681B6842F0040292B2A3F84020A0
:102C0C00786806F093FC26E0BB6903F40073002B94
:102C1C000FD07B681B68B3F844309AB27B681B6892
:102C2C0022F4007292B2A3F84420786806F051FCAA
:102C3C0011E0BB6903F48073002B0CD07B681B681C
:102C4C00B3F844309AB27B681B6822F4807292B25B
:102C5C00A3F8442000BF2037BD4680BD80B582B0AC
:102C6C0000AF78600B46FB707B6893F89032012BB9
:102C7C0001D1022312E07B68012283F890227B6849
:102C8C00FA785A737B681B68FA781146184604F078
:102C9C00D5FD7B68002283F8902200231846083764
:102CAC00BD4680BD80B584B000AF78600846114643
:102CBC001A460346FB700B463B801346BB70002341
:102CCC00FB7297F90330002B0EDAFB7803F0070246
:102CDC0013469B001344DB0010337A681344FB60EB
:102CEC00FB6801225A700EE0FB7803F007021346D2
:102CFC009B001344DB0003F5A8737A681344FB6054
:102D0C00FB6800225A70FB7803F00703DAB2FB6809
:102D1C001A703A88FB681A61FB68BA78DA70BB786B
:102D2C00022B02D1FB6800221A717B6893F8903257
:102D3C00012B01D102230EE07B68012283F8902243
:102D4C007B681B68F968184602F01EFB7B68002242
:102D5C0083F89022FB7A18461037BD4680BD80B5AB
:102D6C0084B000AF78600B46FB7097F90330002BF2
:102D7C000EDAFB7803F0070213469B001344DB00CA
:102D8C0010337A681344FB60FB6801225A700EE022
:102D9C00FB7803F0070213469B001344DB0003F59A
:102DAC00A8737A681344FB60FB6800225A70FB78A6
:102DBC0003F00703DAB2FB681A707B6893F8903261
:102DCC00012B01D102230EE07B68012283F89022B3
:102DDC007B681B68F968184602F096FE7B68002237
:102DEC0083F89022002318461037BD4680BD80B56D
:102DFC0086B000AFF8607A603B600B46FB72FB7AE2
:102E0C0003F0070213469B001344DB0003F5A87381
:102E1C00FA6813447B617B697A685A617B693A680A
:102E2C009A617B690022DA617B6900225A70FB7A15
:102E3C0003F00703DAB27B691A70FB681B687969C7
:102E4C00184603F04DF8002318461837BD4680BDD0
:102E5C0080B483B000AF78600B46FB70FB7803F056
:102E6C000702796813469B001344DB000B4403F5FF
:102E7C00B6731B6818460C37BD4680BC704780B5CE
:102E8C0086B000AFF8607A603B600B46FB72FB7A51
:102E9C0003F0070213469B001344DB001033FA685F
:102EAC0013447B617B697A685A617B693A689A61E1
:102EBC007B69012283F824207B693A681A627B695A
:102ECC000022DA617B6901225A70FB7A03F0070356
:102EDC00DAB27B691A70FB681B687969184602F0D4
:102EEC00FFFF002318461837BD4680BD80B584B05F
:102EFC0000AF78600B46FB70FB7803F007037A6831
:102F0C001279934201D901234CE097F90330002B3D
:102F1C000EDAFB7803F0070213469B001344DB0028
:102F2C0010337A681344FB60FB6801225A700CE082
:102F3C00FA7813469B001344DB0003F5A8737A68F8
:102F4C001344FB60FB6800225A70FB6801229A70E4
:102F5C00FB7803F00703DAB2FB681A707B6893F80E
:102F6C009032012B01D102231CE07B68012283F8F3
:102F7C0090227B681B68F968184604F062FBFB78AA
:102F8C0003F00703002B08D17B681A687B6803F5F4
:102F9C0026731946104604F087FC7B68002283F8E0
:102FAC009022002318461037BD4680BD80B584B0F2
:102FBC0000AF78600B46FB70FB7803F00F037A6868
:102FCC001279934201D9012340E097F90330002B89
:102FDC000EDAFB7803F0070213469B001344DB0068
:102FEC0010337A681344FB60FB6801225A700EE0C0
:102FFC00FB7803F0070213469B001344DB0003F538
:10300C00A8737A681344FB60FB6800225A70FB6853
:10301C0000229A70FB7803F00703DAB2FB681A708F
:10302C007B6893F89032012B01D102230EE07B6870
:10303C00012283F890227B681B68F968184604F01B
:10304C0050FB7B68002283F890220023184610372F
:10305C00BD4680BD80B596B000AF7860BBE37B68A1
:10306C001B68B3F84430A7F84E30B7F84E30DBB2DB
:10307C0003F00F0387F84D3097F84D30002B40F0DC
:10308C007581B7F84E3003F01003002B4ED17B68DE
:10309C001B681B889BB223F4E14323F07003FB8174
:1030AC007B681A68FB896FEA43436FEA53439BB210
:1030BC0013807B6810337B657B681B68B3F85030DA
:1030CC009BB21A467B6D1B78DB00134402335B000A
:1030DC007A681268134403F580631B88C3F30902F2
:1030EC007B6DDA617B6D5A697B6DDB691A447B6D94
:1030FC005A610021786806F0D2F97B685B7BDBB201
:10310C00002B00F068837B6D9B69002B40F0638380
:10311C007B685B7BDBB263F07F03DAB27B681B6896
:10312C00A3F84C207B6800225A7354E37B6803F5A8
:10313C00A8737B657B681B681B88A7F84A30B7F8B7
:10314C004A3003F40063002B34D07B681B68B3F85F
:10315C0050309BB21A467B6D1B78DB001344063350
:10316C005B007A681268134403F580631B88C3F311
:10317C0009027B6DDA617B6818687B6803F5267140
:10318C007B6DDA887B6DDB699BB204F0DEFB7B68C0
:10319C001B681B889AB240F68F7313403B827B6886
:1031AC001B683A8A42F0800292B21A80786806F064
:1031BC0049F910E3B7F94A30002B80F20C837B6895
:1031CC001B681B889AB240F68F731340FB837B6895
:1031DC001B68FA8B42F0800292B21A807B681B68E3
:1031EC00B3F850309BB21A467B6D1B78DB0013444E
:1031FC0006335B007A681268134403F580631B88FE
:10320C00C3F309027B6DDA617B6DDB69002B19D08E
:10321C007B6D5B69002B15D07B6818687B6D5969D9
:10322C007B6DDA887B6DDB699BB204F08EFB7B6D6A
:10323C005A697B6DDB691A447B6D5A610021786891
:10324C0006F012F97B681B681B88A7F84A30B7F8A0
:10325C004A3003F40063002B40F0BD82B7F84A30CB
:10326C0003F44053B3F5405F00F0B5827B681B68F4
:10327C00BB617B681B68B3F850309BB21A46BB69C4
:10328C001344BB61BB6903F20C437B617B691B88F4
:10329C009BB2C3F309039AB27B691A807B6D1B69DD
:1032AC003E2B1DD97B6D1B695B097B647B6D1B6998
:1032BC0003F01F03002B02D17B6C013B7B647B6909
:1032CC001B889AB27B6C9BB29B029BB213439BB242
:1032DC006FEA43436FEA53439AB27B691A8026E044
:1032EC007B6D1B69002B0AD17B691B889BB26FEA33
:1032FC0043436FEA53439AB27B691A8017E07B6DA4
:10330C001B695B087B647B6D1B6903F00103002B5D
:10331C0002D07B6C01337B647B691B889AB27B6C1B
:10332C009BB29B029BB213439AB27B691A807B6857
:10333C001B681B889BB223F4804323F070037B82B1
:10334C007B8A83F480537B827B8A83F400537B8259
:10335C007B681A687B8A43F07F4343F47F0343F412
:10336C00004343F080039BB2138034E27B681B68FC
:10337C001A4697F84D309B0013441B88A7F84A3027
:10338C00B7F94A30002B80F2FC807B681B681A4628
:10339C0097F84D309B0013441B889AB240F68F73FC
:1033AC001340A7F848307B681B681A4697F84D30D5
:1033BC009B001344B7F8482042F0800292B21A8066
:1033CC0097F84D2013469B001344DB0003F5A873BC
:1033DC007A6813447B657B6D1B7B002B25D17B6846
:1033EC001B68B3F850309BB21A467B6D1B78DB0020
:1033FC00134406335B007A681268134403F5806348
:10340C001B88C3F30903A7F85030B7F85030002BD2
:10341C0000F092807B6818687B6D59697B6DDA8847
:10342C00B7F8503004F091FA86E07B6DDB78022B14
:10343C000AD1B7F84A301A46796D786800F0D9F994
:10344C000346A7F8503077E07B681B681A467B6D03
:10345C001B789B0013441B889BB223F4E04323F09E
:10346C007003A7F852307B681B681A467B6D1B787B
:10347C009B001A44B7F8523043F07F4343F47F0368
:10348C0043F4004343F0C0039BB213807B681B687A
:10349C001A467B6D1B789B0013441B889BB203F46C
:1034AC008043002B24D07B681B68B3F850309BB250
:1034BC001A467B6D1B78DB00134402335B007A6881
:1034CC001268134403F580631B88C3F30903A7F840
:1034DC005030B7F85030002B2ED07B6818687B6DBD
:1034EC0059697B6D1A89B7F8503004F02EFA23E035
:1034FC007B681B68B3F850309BB21A467B6D1B7807
:10350C00DB00134406335B007A681268134403F53E
:10351C0080631B88C3F30903A7F85030B7F8503009
:10352C00002B09D07B6818687B6D59697B6D5A89B3
:10353C00B7F8503004F009FA7B6DDA69B7F85030FF
:10354C001A447B6DDA617B6D5A69B7F850301A44B6
:10355C007B6D5A617B6D9B69002B05D0B7F85020B1
:10356C007B6D1B699A4206D27B6D1B781946786875
:10357C0005F07AFF05E07B681B68796D184602F050
:10358C00AFFCB7F84A3003F08003002B00F0238126
:10359C0097F84D2013469B001344DB0010337A68D8
:1035AC0013447B657B681B681A4697F84D309B006B
:1035BC0013441B889BB223F4E14323F07003A7F858
:1035CC0042307B681B681A4697F84D309B001A44B2
:1035DC00B7F842306FEA43436FEA53439BB2138010
:1035EC007B6DDB78012B40F0A2807B6D00229A6111
:1035FC007B6D1B7B002B00F09380B7F84A3003F0F7
:10360C004003002B46D07B6D5B78002B26D17B686A
:10361C001B687B627B681B68B3F850309BB21A4600
:10362C007B6A13447B627B6D1B781A017B6A1344A3
:10363C0003F204433B623B6A1B889BB2C3F309034E
:10364C009AB23B6A1A803B6A1B889BB26FEA43436F
:10365C006FEA53439AB23B6A1A8061E07B6D5B78E8
:10366C00012B5DD17B681B68FB627B681B68B3F820
:10367C0050309BB21A46FB6A1344FB627B6D1B787D
:10368C001A01FB6A134403F20443BB62BB6A0022B7
:10369C001A8045E07B681B68FB637B6D5B78002BB5
:1036AC0026D17B681B687B637B681B68B3F8503042
:1036BC009BB21A467B6B13447B637B6D1B781A01A0
:1036CC007B6B134403F20C433B633B6B1B889BB239
:1036DC00C3F309039AB23B6B1A803B6B1B889BB2FA
:1036EC006FEA43436FEA53439AB23B6B1A8017E07D
:1036FC007B6D5B78012B13D17B681B68B3F8503062
:10370C009BB21A46FB6B1344FB637B6D1B781A014F
:10371C00FB6B134403F20C43BB63BB6B00221A809C
:10372C007B6D1B781946786805F0B9FE53E0B7F845
:10373C004A3003F48073002B46D17B681B68B3F8C6
:10374C0050309BB21A467B6D1B78DB00134402335E
:10375C005B007A681268134403F580631B88C3F31B
:10376C000903A7F840307B6D9A69B7F840309A424C
:10377C0007D97B6D9A69B7F84030D21A7B6D9A6184
:10378C0002E07B6D00229A617B6D9B69002B06D158
:10379C007B6D1B781946786805F081FE1BE07B6D0C
:1037AC005A69B7F840301A447B6D5A617B6DDA69FF
:1037BC00B7F840301A447B6DDA617B681B68796D11
:1037CC00184602F08DFB06E0B7F84A301A46796DC0
:1037DC00786800F01BF97B681B68B3F844309BB227
:1037EC001BB2002BFFF63BAC002318465837BD46E6
:1037FC0080BD80B588B000AFF860B9601346FB801F
:10380C00FB8803F48043002B7ED0FB681B68B3F865
:10381C0050309BB21A46BB681B78DB001344023352
:10382C005B00FA681268134403F580631B88C3F3CA
:10383C0009037B83BB689A697B8B9A4206D3BB686E
:10384C009A697B8BD21ABB689A6102E0BB68002232
:10385C009A61BB689B69002B23D1FB681B681A46D5
:10386C00BB681B789B0013441B889BB223F48043DA
:10387C0023F070033B833B8B83F400533B83FB6847
:10388C001B681A46BB681B789B001A443B8B43F0A1
:10389C007F4343F47F0343F4004343F080039BB224
:1038AC001380FB8803F04003002B1FD0FB681B68C0
:1038BC001A46BB681B789B0013441B889BB223F4ED
:1038CC00E04323F07003FB82FB681B681A46BB685D
:1038DC001B789B001A44FB8A43F07F4343F47F031D
:1038EC0043F4004343F0C0039BB213807B8B002B4B
:1038FC0000F08780FB681868BB685969BB681A8937
:10390C007B8B04F022F87CE0FB681B68B3F850302A
:10391C009BB21A46BB681B78DB00134406335B0072
:10392C00FA681268134403F580631B88C3F3090318
:10393C007B83BB689A697B8B9A4206D3BB689A6976
:10394C007B8BD21ABB689A6102E0BB6800229A6139
:10395C00BB689B69002B23D1FB681B681A46BB68AC
:10396C001B789B0013441B889BB223F4804323F0E9
:10397C007003FB83FB8B83F40053FB83FB681B6896
:10398C001A46BB681B789B001A44FB8B43F07F43A1
:10399C0043F47F0343F4004343F080039BB2138052
:1039AC00FB8803F04003002B1FD1FB681B681A46F1
:1039BC00BB681B789B0013441B889BB223F4E04329
:1039CC0023F07003BB83FB681B681A46BB681B782B
:1039DC009B001A44BB8B43F07F4343F47F0343F4B7
:1039EC00004343F0C0039BB213807B8B002B08D0A9
:1039FC00FB681868BB685969BB685A897B8B03F0F4
:103A0C00A4FF7B8B18462037BD4680BD80B5A4B083
:103A1C0000AFF860B9601346FB80FB8803F04003ED
:103A2C00002B00F0DD81FB681B68B3F850309BB2B3
:103A3C001A46BB681B78DB00134402335B00FA6840
:103A4C001268134403F580631B88C3F30903A7F8BA
:103A5C008630BB689A69B7F886309A4207D9BB683A
:103A6C009A69B7F88630D21ABB689A6102E0BB68D3
:103A7C0000229A61BB689B69002B40F0B980BB683F
:103A8C005B78002B26D1FB681B68FB62FB681B680C
:103A9C00B3F850309BB21A46FB6A1344FB62BB6806
:103AAC001B781A01FB6A134403F20443BB62BB6A22
:103ABC001B889BB2C3F309039AB2BB6A1A80BB6A18
:103ACC001B889BB26FEA43436FEA53439AB2BB6ABB
:103ADC001A801AE0BB685B78012B16D1FB681B6857
:103AEC007B63FB681B68B3F850309BB21A467B6B48
:103AFC0013447B63BB681B781A017B6B134403F282
:103B0C0004433B633B6B00221A80FB681B687B629F
:103B1C00BB685B78002B26D1FB681B68FB61FB68DC
:103B2C001B68B3F850309BB21A46FB691344FB6117
:103B3C00BB681B781A01FB69134403F20C43BB618D
:103B4C00BB691B889BB2C3F309039AB2BB691A8089
:103B5C00BB691B889BB26FEA43436FEA53439AB22B
:103B6C00BB691A8017E0BB685B78012B13D1FB682B
:103B7C001B68B3F850309BB21A467B6A13447B62C5
:103B8C00BB681B781A017B6A134403F20C433B623B
:103B9C003B6A00221A80BB681B781946F86805F04E
:103BAC007EFCFB8803F48043002B00F0FC82FB6856
:103BBC001B681A46BB681B789B0013441B889BB27E
:103BCC0023F4E04323F07003FB82FB681B681A4666
:103BDC00BB681B789B001A44FB8A43F07F4343F479
:103BEC007F0343F4404343F080039BB21380DAE23B
:103BFC00FB8803F48043002B21D0FB681B681A461A
:103C0C00BB681B789B0013441B889BB223F4E043D6
:103C1C0023F07003A7F88A30FB681B681A46BB6850
:103C2C001B789B001A44B7F88A3043F07F4343F467
:103C3C007F0343F4404343F080039BB21380BB6883
:103C4C0093F82430012B40F0AE82BB685A69B7F868
:103C5C0086301A44BB685A61BB68DA69B7F886309B
:103C6C001A44BB68DA61BB681A6ABB681B699A4262
:103C7C000BD3BB681B69C7F88C30BB681A6AD7F8C2
:103C8C008C30D21ABB681A6217E0BB681B6A002B17
:103C9C0008D1B7F88630C7F88C30BB68002283F89F
:103CAC0024200AE0BB68002283F82420BB681B6A2E
:103CBC00C7F88C30BB6800221A62BB685B78002B9B
:103CCC0065D1FB681B68FB63FB681B68B3F850305D
:103CDC009BB21A46FB6B1344FB63BB681B781A013F
:103CEC00FB6B134403F20443BB63BB6B1B889BB29B
:103CFC00C3F309039AB2BB6B1A80D7F88C303E2BF6
:103D0C001DD9D7F88C305B09BB64D7F88C3003F025
:103D1C001F03002B02D1BB6C013BBB64BB6B1B882C
:103D2C009AB2BB6C9BB29B029BB213439BB26FEAE1
:103D3C0043436FEA53439AB2BB6B1A8044E0D7F803
:103D4C008C30002B0AD1BB6B1B889BB26FEA4343B0
:103D5C006FEA53439AB2BB6B1A8035E0D7F88C30BC
:103D6C005B08BB64D7F88C3003F00103002B02D046
:103D7C00BB6C0133BB64BB6B1B889AB2BB6C9BB234
:103D8C009B029BB213439AB2BB6B1A801CE0BB68BC
:103D9C005B78012B18D1FB681B687B64FB681B6884
:103DAC00B3F850309BB21A467B6C13447B64BB68EF
:103DBC001B781A017B6C134403F204433B64D7F861
:103DCC008C309AB23B6C1A80FB681868BB685969D6
:103DDC00BB681A89D7F88C309BB203F070FDE2E116
:103DEC00FB681B68B3F850309BB21A46BB681B7853
:103DFC00DB00134406335B00FA681268134403F5C6
:103E0C0080631B88C3F30903A7F88630BB689A69E3
:103E1C00B7F886309A4207D3BB689A69B7F88630F0
:103E2C00D21ABB689A6102E0BB6800229A61BB6837
:103E3C009B69002B40F0C080BB685B78002B26D1BF
:103E4C00FB681B68FB67FB681B68B3F850309BB2C0
:103E5C001A46FB6F1344FB67BB681B781A01FB6F98
:103E6C00134403F20443BB67BB6F1B889BB2C3F3C1
:103E7C0009039AB2BB6F1A80BB6F1B889BB26FEAA7
:103E8C0043436FEA53439AB2BB6F1A801AE0BB6884
:103E9C005B78012B16D1FB681B687B66FB681B6883
:103EAC00B3F850309BB21A467B6E13447B66BB68EA
:103EBC001B781A017B6E134403F204433B663B6E82
:103ECC0000221A80FB681B687B67BB685B78002B41
:103EDC002BD1FB681B68FB66FB681B68B3F8503082
:103EEC009BB21A46FB6E1344FB66BB681B781A0127
:103EFC00FB6E134403F20C43C7F88030D7F88030C4
:103F0C001B889BB2C3F309039AB2D7F880301A808E
:103F1C00D7F880301B889BB26FEA43436FEA534358
:103F2C009AB2D7F880301A8017E0BB685B78012B07
:103F3C0013D1FB681B68B3F850309BB21A467B6FE9
:103F4C0013447B67BB681B781A017B6F134403F225
:103F5C000C433B673B6F00221A80BB681B781946E9
:103F6C00F86805F09CFAFB8803F48043002B40F0C2
:103F7C001A81FB681B681A46BB681B789B001344AC
:103F8C001B889BB223F4E04323F07003A7F888301E
:103F9C00FB681B681A46BB681B789B001A44B7F871
:103FAC00883043F07F4343F47F0343F4404343F0B2
:103FBC0080039BB21380F6E0FB8803F48043002B54
:103FCC0021D1FB681B681A46BB681B789B00134405
:103FDC001B889BB223F4E04323F07003A7F84E3008
:103FEC00FB681B681A46BB681B789B001A44B7F821
:103FFC004E3043F07F4343F47F0343F4404343F09C
:10400C0080039BB21380BB6893F82430012B40F0E3
:10401C00CA80BB685A69B7F886301A44BB685A61C3
:10402C00BB68DA69B7F886301A44BB68DA61BB68DA
:10403C001A6ABB681B699A420BD3BB681B69C7F829
:10404C008C30BB681A6AD7F88C30D21ABB681A62EB
:10405C0017E0BB681B6A002B08D1B7F88630C7F88D
:10406C008C30BB68002283F824200AE0BB681B6AF2
:10407C00C7F88C30BB6800221A62BB68002283F838
:10408C002420FB681B687B65BB685B78002B65D1C3
:10409C00FB681B68FB65FB681B68B3F850309BB270
:1040AC001A46FB6D1344FB65BB681B781A01FB6D4C
:1040BC00134403F20C43BB65BB6D1B889BB2C3F36B
:1040CC0009039AB2BB6D1A80D7F88C303E2B1DD9E0
:1040DC00D7F88C305B09BB66D7F88C3003F01F0324
:1040EC00002B02D1BB6E013BBB66BB6D1B889AB229
:1040FC00BB6E9BB29B029BB213439BB26FEA4343D2
:10410C006FEA53439AB2BB6D1A8041E0D7F88C30FA
:10411C00002B0AD1BB6D1B889BB26FEA43436FEA3D
:10412C0053439AB2BB6D1A8032E0D7F88C305B08DF
:10413C00BB66D7F88C3003F00103002B02D0BB6EAA
:10414C000133BB66BB6D1B889AB2BB6E9BB29B02E4
:10415C009BB213439AB2BB6D1A8019E0BB685B78B3
:10416C00012B15D1FB681B68B3F850309BB21A4673
:10417C007B6D13447B65BB681B781A017B6D134404
:10418C0003F20C433B65D7F88C309AB23B6D1A8026
:10419C00FB681868BB685969BB685A89D7F88C30BA
:1041AC009BB203F08CFBFB681B681A46BB681B7840
:1041BC009B0013441B889BB223F4E04323F0400381
:1041CC00BB82BB8A83F01003BB82BB8A83F02003C3
:1041DC00BB82FB681B681A46BB681B789B001A44A1
:1041EC00BB8A43F07F4343F47F0343F4004343F023
:1041FC0080039BB21380002318469037BD4680BDC8
:10420C0080B487B000AFF8607B600B467B811346AF
:10421C003B817B8903F080039BB2002B0BD07B8905
:10422C0003F0070213469B001344DB001033FA68BB
:10423C0013447B6109E07A8913469B001344DB002D
:10424C0003F5A873FA6813447B613B89002B07D1F3
:10425C007B6900221A737B689AB27B69DA800BE067
:10426C007B6901221A737B689AB27B691A817B681D
:10427C001B0C9AB27B695A81002318461C37BD4629
:10428C0080BC704780B586B000AF78607B68002B2F
:10429C0001D1012372E27B681B6803F00103002B40
:1042AC0000F08780924B5B6803F00C03042B0CD05E
:1042BC008F4B5B6803F00C03082B12D18C4B5B68A3
:1042CC0003F48033B3F5803F0BD1894B1B6803F4A7
:1042DC000033002B6CD07B685B68002B68D101230A
:1042EC004CE27B685B68B3F5803F06D1804B1B6862
:1042FC007F4A43F4803313602EE07B685B68002BAD
:10430C000CD17B4B1B687A4A23F480331360784BB7
:10431C001B68774A23F4802313601DE07B685B687D
:10432C00B3F5A02F0CD1724B1B68714A43F4802358
:10433C0013606F4B1B686E4A43F4803313600BE0C1
:10434C006B4B1B686A4A23F480331360684B1B6801
:10435C00674A23F4802313607B685B68002B13D0BF
:10436C00FCF726FE386108E0FCF722FE02463B69AA
:10437C00D31A642B01D9032300E25D4B1B6803F4B1
:10438C000033002BF0D014E0FCF712FE386108E08B
:10439C00FCF70EFE02463B69D31A642B01D90323AA
:1043AC00ECE1534B1B6803F40033002BF0D100E01D
:1043BC0000BF7B681B6803F00203002B63D04C4BDF
:1043CC005B6803F00C03002B0BD0494B5B6803F0CC
:1043DC000C03082B1CD1464B5B6803F48033002B79
:1043EC0016D1434B1B6803F00203002B05D07B68EE
:1043FC001B69012B01D00123C0E13D4B1B6823F04D
:10440C00F8027B685B69DB00394913430B603AE0C7
:10441C007B681B69002B20D0364B01221A60FCF7FD
:10442C00C7FD386108E0FCF7C3FD02463B69D31AAF
:10443C00022B01D90323A1E12D4B1B6803F00203CE
:10444C00002BF0D02A4B1B6823F0F8027B685B69C9
:10445C00DB00274913430B6015E0264B00221A6042
:10446C00FCF7A6FD386108E0FCF7A2FD02463B69AB
:10447C00D31A022B01D9032380E11D4B1B6803F0D7
:10448C000203002BF0D17B681B6803F00803002BA0
:10449C003AD07B689B69002B19D0174B01221A600C
:1044AC00FCF786FD386108E0FCF782FD02463B69AB
:1044BC00D31A022B01D9032360E10D4B5B6A03F085
:1044CC000203002BF0D0012000F0CEFA1CE00A4BC6
:1044DC0000221A60FCF76CFD38610FE0FCF768FDF8
:1044EC0002463B69D31A022B08D9032346E100BFCD
:1044FC00001002400000424280044242924B5B6A30
:10450C0003F00203002BE9D17B681B6803F0040362
:10451C00002B00F0A6800023FB758B4BDB6903F0AE
:10452C008053002B0DD1884BDB69874A43F08053B5
:10453C00D361854BDB6903F08053BB60BB680123FF
:10454C00FB75824B1B6803F48073002B18D17F4BD7
:10455C001B687E4A43F480731360FCF729FD3861B5
:10456C0008E0FCF725FD02463B69D31A642B01D900
:10457C00032303E1754B1B6803F48073002BF0D00D
:10458C007B68DB68012B06D16F4B1B6A6E4A43F0CC
:10459C00010313622DE07B68DB68002B0CD16A4BA6
:1045AC001B6A694A23F001031362674B1B6A664A54
:1045BC0023F0040313621CE07B68DB68052B0CD131
:1045CC00614B1B6A604A43F0040313625E4B1B6A27
:1045DC005D4A43F0010313620BE05B4B1B6A5A4AC2
:1045EC0023F001031362584B1B6A574A23F0040350
:1045FC0013627B68DB68002B15D0FCF7D9FC3861A3
:10460C000AE0FCF7D5FC02463B69D31A41F288322A
:10461C00934201D90323B1E04B4B1B6A03F0020315
:10462C00002BEED014E0FCF7C3FC38610AE0FCF779
:10463C00BFFC02463B69D31A41F28832934201D93E
:10464C0003239BE0404B1B6A03F00203002BEED1CB
:10465C00FB7D012B05D13C4BDB693B4A23F080539E
:10466C00D3617B68DB69002B00F08780364B5B687D
:10467C0003F00C03082B61D07B68DB69022B46D15D
:10468C00334B00221A60FCF793FC386108E0FCF70E
:10469C008FFC02463B69D31A022B01D903236DE030
:1046AC00294B1B6803F00073002BF0D17B681B6A4D
:1046BC00B3F5803F08D1244B5B6823F400327B6850
:1046CC009B68214913434B601F4B5B6823F47412A6
:1046DC007B68196A7B685B6A0B431B4913434B600D
:1046EC001B4B01221A60FCF763FC386108E0FCF7F5
:1046FC005FFC02463B69D31A022B01D903233DE030
:10470C00114B1B6803F00073002BF0D035E0104BFD
:10471C0000221A60FCF74CFC386108E0FCF748FCFE
:10472C0002463B69D31A022B01D9032326E0064B20
:10473C001B6803F00073002BF0D11EE07B68DB6973
:10474C00012B07D1012319E000100240007000403A
:10475C00600042420B4B5B68FB60FB6803F48032E9
:10476C007B681B6A9A4206D1FB6803F470127B6863
:10477C005B6A9A4201D0012300E0002318461837E7
:10478C00BD4680BD0010024080B584B000AF78609B
:10479C0039607B68002B01D10123D0E06A4B1B6888
:1047AC0003F007033A689A4210D9674B1B6823F051
:1047BC00070265493B6813430B60634B1B6803F0AE
:1047CC0007033A689A4201D00123B8E07B681B6862
:1047DC0003F00203002B20D07B681B6803F004035A
:1047EC00002B05D0594B5B68584A43F4E063536087
:1047FC007B681B6803F00803002B05D0534B5B68E8
:10480C00524A43F460535360504B5B6823F0F00200
:10481C007B689B684D4913434B607B681B6803F0B6
:10482C000103002B40D07B685B68012B07D1474B01
:10483C001B6803F40033002B15D101237FE07B6848
:10484C005B68022B07D1414B1B6803F00073002BF4
:10485C0009D1012373E03D4B1B6803F00203002BCD
:10486C0001D101236BE0394B5B6823F003027B68B9
:10487C005B68364913434B60FCF79AFBF8600AE01F
:10488C00FCF796FB0246FB68D31A41F2883293423E
:10489C0001D9032353E02D4B5B6803F00C027B68BA
:1048AC005B689B009A42EBD1274B1B6803F0070314
:1048BC003A689A4210D2244B1B6823F00702224913
:1048CC003B6813430B60204B1B6803F007033A68EB
:1048DC009A4201D0012332E07B681B6803F0040389
:1048EC00002B08D0194B5B6823F4E0627B68DB6813
:1048FC00164913434B607B681B6803F00803002BBD
:10490C0009D0124B5B6823F460527B681B69DB0097
:10491C000E4913434B6000F021F802460B4B5B68C9
:10492C001B0903F00F030A49CB5C22FA03F3094A73
:10493C001360094B1B681846FCF7F8FA002318465D
:10494C001037BD4680BD00BF002002400010024061
:10495C00F4A10008080000200C00002080B487B0EF
:10496C0000AF0023FB600023BB6000237B610023AE
:10497C007B6000233B611E4B5B68FB60FB6803F0B4
:10498C000C03042B02D0082B03D027E0194B3B61FE
:10499C0027E0FB689B0C03F00F03174AD35C7B608A
:1049AC00FB6803F48033002B10D0114B5B685B0C5D
:1049BC0003F00103114AD35CBB607B680D4A03FB17
:1049CC0002F2BB68B2FBF3F37B6104E07B680C4A38
:1049DC0002FB03F37B617B693B6102E0054B3B61AE
:1049EC0000BF3B6918461C37BD4680BC704700BFF2
:1049FC000010024000127A000CA200081CA2000851
:104A0C0000093D0080B400AF024B1B681846BD4640
:104A1C0080BC70470800002080B500AFFFF7F2FFA4
:104A2C000246054B5B681B0A03F007030349CB5C8A
:104A3C0022FA03F3184680BD0010024004A20008BD
:104A4C0080B500AFFFF7DEFF0246054B5B68DB0A63
:104A5C0003F007030349CB5C22FA03F3184680BD2D
:104A6C000010024004A2000880B485B000AF78604A
:104A7C000A4B1B680A4AA2FB03235B0A7A6802FBF7
:104A8C0003F3FB6000BFFB685A1EFA60002BF9D1E0
:104A9C0000BF00BF1437BD4680BC70470800002023
:104AAC00D34D621080B586B000AF786000233B61B7
:104ABC000023FB607B681B6803F00103002B7DD097
:104ACC000023FB754F4BDB6903F08053002B0DD19A
:104ADC004C4BDB694B4A43F08053D361494BDB6948
:104AEC0003F08053BB60BB680123FB75464B1B680E
:104AFC0003F48073002B18D1434B1B68424A43F4D8
:104B0C0080731360FCF754FA386108E0FCF750FA34
:104B1C0002463B69D31A642B01D903236DE03A4B4F
:104B2C001B6803F48073002BF0D0364B1B6A03F424
:104B3C004073FB60FB68002B2ED07B685B6803F432
:104B4C004073FA689A4227D02E4B1B6A23F44073A9
:104B5C00FB602E4B01221A602C4B00221A60294A52
:104B6C00FB681362FB6803F00103002B14D0FCF705
:104B7C001FFA38610AE0FCF71BFA02463B69D31AAC
:104B8C0041F28832934201D9032336E01D4B1B6A54
:104B9C0003F00203002BEED01A4B1B6A23F4407275
:104BAC007B685B68174913430B62FB7D012B05D1B6
:104BBC00144BDB69134A23F08053D3617B681B6869
:104BCC0003F00203002B08D00E4B5B6823F4404229
:104BDC007B689B680B4913434B607B681B6803F035
:104BEC001003002B08D0074B5B6823F480027B6812
:104BFC00DB68044913434B60002318461837BD4645
:104C0C0080BD00BF001002400070004040044242D2
:104C1C0080B582B000AF78607B68002B01D1012396
:104C2C0041E07B6893F83D30DBB2002B06D17B680A
:104C3C00002283F83C207868FCF78CF87B68022211
:104C4C0083F83D207B681A687B680433194610464C
:104C5C0000F0F4F87B68012283F846207B6801227F
:104C6C0083F83E207B68012283F83F207B68012279
:104C7C0083F840207B68012283F841207B68012265
:104C8C0083F842207B68012283F843207B68012251
:104C9C0083F844207B68012283F845207B6801223D
:104CAC0083F83D20002318460837BD4680BD80B5EB
:104CBC0084B000AF786039600023FB737B6893F895
:104CCC003C30012B01D10223B4E07B68012283F834
:104CDC003C207B68022283F83D207B681B689B6824
:104CEC00BB60BB6823F07703BB60BB6823F47F43D6
:104CFC00BB607B681B68BA689A603B681B68B3F53D
:104D0C00005F3ED0B3F5005F00F28780B3F5805FA3
:104D1C0000F08680B3F5805F7FD8702B1AD0702B93
:104D2C007BD8602B50D0602B77D8502B3CD0502B9D
:104D3C0073D8402B58D0402B6FD8302B64D0302BED
:104D4C006BD8202B60D0202B67D8002B5CD0102B7D
:104D5C005AD062E07B6818683B6899683B685A686F
:104D6C003B68DB6800F04FF97B681B689B68BB6095
:104D7C00BB6843F07703BB607B681B68BA689A60BA
:104D8C004FE07B6818683B6899683B685A683B68D9
:104D9C00DB6800F038F97B681B689A687B681B68D5
:104DAC0042F480429A603CE07B6818683B68596822
:104DBC003B68DB681A4600F0AFF87B681B68502133
:104DCC00184600F006F92CE07B6818683B685968B7
:104DDC003B68DB681A4600F0CDF87B681B686021E5
:104DEC00184600F0F6F81CE07B6818683B685968B8
:104DFC003B68DB681A4600F08FF87B681B68402123
:104E0C00184600F0E6F80CE07B681A683B681B68F3
:104E1C001946104600F0DDF803E00123FB7300E0B7
:104E2C0000BF7B68012283F83D207B68002283F859
:104E3C003C20FB7B18461037BD4680BD80B485B046
:104E4C0000AF786039607B681B68FB607B682F4A19
:104E5C0093420BD07B68B3F1804F07D07B682C4A10
:104E6C00934203D07B682B4A934208D1FB6823F012
:104E7C007003FB603B685B68FA681343FB607B68FC
:104E8C00224A93420BD07B68B3F1804F07D07B68EA
:104E9C001F4A934203D07B681E4A934208D1FB6899
:104EAC0023F44073FB603B68DB68FA681343FB60D8
:104EBC00FB6823F080023B685B691343FB607B68F3
:104ECC00FA681A603B689A687B68DA623B681A6811
:104EDC007B689A627B680D4A934203D13B681A69DE
:104EEC007B681A637B6801225A617B681B6903F03B
:104EFC000103002B05D07B681B6923F001027B6842
:104F0C001A6100BF1437BD4680BC7047002C0140AD
:104F1C00000400400008004080B487B000AFF86087
:104F2C00B9607A60FB681B6A7B61FB681B6A23F0C3
:104F3C000102FB681A62FB689B693B613B6923F0C9
:104F4C00F0033B617B681B013A6913433B617B694E
:104F5C0023F00A037B617A69BB6813437B61FB68AE
:104F6C003A699A61FB687A691A6200BF1C37BD46C0
:104F7C0080BC704780B487B000AFF860B9607A60CD
:104F8C00FB681B6A7B61FB681B6A23F01002FB68E1
:104F9C001A62FB689B693B613B6923F470433B617C
:104FAC007B681B033A6913433B617B6923F0A003C5
:104FBC007B61BB681B017A6913437B61FB683A69AF
:104FCC009A61FB687A691A6200BF1C37BD4680BCC7
:104FDC00704780B485B000AF786039607B689B689F
:104FEC00FB60FB6823F07003FB603A68FB681343BB
:104FFC0043F00703FB607B68FA689A6000BF1437C4
:10500C00BD4680BC704780B487B000AFF860B96013
:10501C007A603B60FB689B687B617B6923F47F4310
:10502C007B613B681A027B681A43BB6813437A693D
:10503C0013437B61FB687A699A6000BF1C37BD46DD
:10504C0080BC704780B485B000AF786039607B68F5
:10505C0093F83C30012B01D1022346E07B680122FE
:10506C0083F83C207B68022283F83D207B681B6818
:10507C005B68FB607B681B689B68BB60FB6823F00C
:10508C007003FB603B681B68FA681343FB607B682A
:10509C001B68FA685A607B681B68164A93420ED0EC
:1050AC007B681B68B3F1804F09D07B681B68124A80
:1050BC00934204D07B681B68104A93420CD1BB68A6
:1050CC0023F08003BB603B685B68BA681343BB602A
:1050DC007B681B68BA689A607B68012283F83D2064
:1050EC007B68002283F83C20002318461437BD4609
:1050FC0080BC7047002C01400004004000080040B8
:10510C0080B582B000AF78607B68002B01D10123A1
:10511C0042E07B6893F84130DBB2002B06D17B6810
:10512C00002283F840207868FBF732FE7B6824224B
:10513C0083F841207B681B68DA687B681B6822F463
:10514C000052DA60786800F02BF87B681B681A69EB
:10515C007B681B6822F490421A617B681B685A6951
:10516C007B681B6822F02A025A617B681B68DA682C
:10517C007B681B6842F40052DA607B6800225A6438
:10518C007B68202283F841207B68202283F8422010
:10519C007B6800225A63002318460837BD4680BD41
:1051AC0080B584B000AF78607B681B681B6923F402
:1051BC0040517B68DA687B681B680A431A617B681C
:1051CC009A687B681B691A437B685B691343BB60F5
:1051DC007B681B68DB6823F4B05323F00C037A68FC
:1051EC001268B9680B43D3607B681B685B6923F456
:1051FC0040717B689A697B681B680A435A617B68BB
:10520C001B682C4A934203D1FFF71AFCF86002E0AA
:10521C00FFF702FCF860FA6813469B0013449A00EF
:10522C001A447B685B689B00B2FBF3F3224AA2FB37
:10523C0003235B091901FA6813469B0013449A0077
:10524C001A447B685B689B00B2FBF3F21A4BA3FB1E
:10525C0002035B09642000FB03F3D31A1B013233F6
:10526C00154AA2FB03235B0903F0F0031944FA6807
:10527C0013469B0013449A001A447B685B689B009E
:10528C00B2FBF3F20C4BA3FB02035B09642000FBA3
:10529C0003F3D31A1B013233074AA2FB03235B0926
:1052AC0003F00F027B681B680A449A6000BF10373A
:1052BC00BD4680BD003801401F85EB5180B485B0E0
:1052CC0000AFF860384680E80E000023184614370B
:1052DC00BD4680BC704780B485B000AF78607B68F9
:1052EC000022A3F844204FF43F43FB60FB689AB2C2
:1052FC007B68A3F84020002318461437BD4680BCB9
:10530C00704780B485B000AF78604FF43F43FB60CA
:10531C007B68B3F840309AB2FB689BB2DB439BB21C
:10532C0013409AB27B68A3F8402000231846143728
:10533C00BD4680BC704780B483B000AF78600B462C
:10534C00FB70002318460C37BD4680BC704780B4F8
:10535C0085B000AFF860384680E80E00FB6801228B
:10536C00A3F84020FB680022A3F84020FB68002231
:10537C00A3F84420FB680022A3F850200023184611
:10538C001437BD4680BC704780B49DB000AF7860C8
:10539C003960002387F86F307A683B681B789B0074
:1053AC0013441B889BB223F4EC4323F07003A7F83F
:1053BC006C303B68DB78032B1FD801A252F823F02A
:1053CC00DD530008F95300080F540008EB53000894
:1053DC00B7F86C3043F40073A7F86C3012E0B7F8F0
:1053EC006C3043F4C063A7F86C300BE0B7F86C304A
:1053FC0043F48063A7F86C3004E0012387F86F3026
:10540C0000E000BF7A683B681B789B001A44B7F831
:10541C006C3043F07F4343F47F0343F4004343F089
:10542C0080039BB213807A683B681B789B00134403
:10543C001B889BB223F4E04323F070039BB23A68C1
:10544C0012781343A7F866307A683B681B789B0088
:10545C001A44B7F8663043F07F4343F47F0343F4B8
:10546C00004343F080039BB213803B681B7B002BF3
:10547C0040F078813B685B78002B00F084807B687F
:10548C00BB617B68B3F850309BB21A46BB691344BE
:10549C00BB613B681B781A01BB69134403F580633D
:1054AC007B613B68DB885B089BB25B009AB27B69D3
:1054BC001A807A683B681B789B0013441B887B829C
:1054CC007B8A03F04003002B1BD07A683B681B7867
:1054DC009B0013441B889BB223F4E04323F070031E
:1054EC003B827A683B681B789B001A443B8A43F0EA
:1054FC007F4343F47F0343F4004343F0C0039BB268
:10550C0013803B68DB78012B20D07A683B681B78D2
:10551C009B0013441B889BB223F4E04323F040030D
:10552C00BB81BB8983F02003BB817A683B681B7805
:10553C009B001A44BB8943F07F4343F47F0343F43D
:10554C00004343F080039BB21380D5E27A683B683A
:10555C001B789B0013441B889BB223F4E04323F07D
:10556C004003FB817A683B681B789B001A44FB89DB
:10557C0043F07F4343F47F0343F4004343F0800341
:10558C009BB21380B8E27B683B637B68B3F8503006
:10559C009BB21A463B6B13443B633B681B781A0166
:1055AC003B6B134403F58163FB623B68DB885B0850
:1055BC009BB25B009AB2FB6A1A807B68BB627B6809
:1055CC00B3F850309BB21A46BB6A1344BB623B68BB
:1055DC001B781A01BB6A134403F20C437B627B6A8F
:1055EC001B889BB2C3F309039AB27B6A1A803B688F
:1055FC001B693E2B1DD93B681B695B09BB663B686D
:10560C001B6903F01F03002B02D1BB6E013BBB6671
:10561C007B6A1B889AB2BB6E9BB29B029BB21343F4
:10562C009BB26FEA43436FEA53439AB27B6A1A8088
:10563C0026E03B681B69002B0AD17B6A1B889BB256
:10564C006FEA43436FEA53439AB27B6A1A8017E0BE
:10565C003B681B695B08BB663B681B6903F0010375
:10566C00002B02D0BB6E0133BB667B6A1B889AB2DF
:10567C00BB6E9BB29B029BB213439AB27B6A1A809D
:10568C007A683B681B789B0013441B887B847B8C5B
:10569C0003F48043002B1BD07A683B681B789B007B
:1056AC0013441B889BB223F4E04323F070033B8428
:1056BC007A683B681B789B001A443B8C43F07F4311
:1056CC0043F47F0343F4404343F080039BB21380C5
:1056DC003B681B78002B24D17A683B681B789B00B5
:1056EC0013441B889BB223F4804323F07003BB83C9
:1056FC00BB8B83F48053BB83BB8B83F40053BB8382
:10570C007A683B681B789B001A44BB8B43F07F4341
:10571C0043F47F0343F4004343F080039BB21380B4
:10572C00EAE17A683B681B789B0013441B889BB2A8
:10573C0023F4804323F07003FB83FB8B83F400532F
:10574C00FB837A683B681B789B001A44FB8B43F005
:10575C007F4343F47F0343F4004343F080039BB245
:10576C001380C9E13B68DB78022B1ED17A683B6859
:10577C001B789B0013441B889BB223F4E04323F05B
:10578C007003A7F862307A683B681B789B001A4458
:10579C00B7F8623043F07F4343F47F0343F4014393
:1057AC0043F080039BB213801DE07A683B681B7842
:1057BC009B0013441B889BB223F4E24323F0700339
:1057CC00A7F864307A683B681B789B001A44B7F8DA
:1057DC00643043F07F4343F47F0343F4004343F0CE
:1057EC0080039BB213807B68FB657B68B3F85030F9
:1057FC009BB21A46FB6D1344FB653B681B781A0180
:10580C00FB6D134403F58063BB653B681B895B0828
:10581C009BB25B009AB2BB6D1A807B687B657B6820
:10582C00B3F850309BB21A467B6D13447B653B68D2
:10583C001B781A017B6D134403F581633B653B6850
:10584C005B895B089BB25B009AB23B6D1A803B682C
:10585C005B78002B40F093807A683B681B789B0048
:10586C0013441B88A7F84030B7F8403003F480434A
:10587C00002B1BD07A683B681B789B0013441B8859
:10588C009BB223F4E04323F07003FB877A683B68F8
:10589C001B789B001A44FB8F43F07F4343F47F0338
:1058AC0043F4404343F080039BB213807A683B6817
:1058BC001B789B0013441B88BB87BB8F03F04003F2
:1058CC00002B1BD07A683B681B789B0013441B8809
:1058DC009BB223F4E04323F070037B877A683B6828
:1058EC001B789B001A447B8F43F07F4343F47F0368
:1058FC0043F4004343F0C0039BB213807A683B68C7
:10590C001B789B0013441B889BB223F4804323F029
:10591C0070033B873B8F83F480533B873B8F83F42F
:10592C0000533B877A683B681B789B001A443B8F7B
:10593C0043F07F4343F47F0343F4004343F080037D
:10594C009BB213807A683B681B789B0013441B88BE
:10595C009BB223F4E04323F04003FB867A683B6858
:10596C001B789B001A44FB8E43F07F4343F47F0368
:10597C0043F4004343F080039BB21380BCE07A688D
:10598C003B681B789B0013441B88A7F84E30B7F874
:10599C004E3003F48043002B1DD07A683B681B7893
:1059AC009B0013441B889BB223F4E04323F0700349
:1059BC00A7F84C307A683B681B789B001A44B7F800
:1059CC004C3043F07F4343F47F0343F4404343F0B4
:1059DC0080039BB213807A683B681B789B0013444E
:1059EC001B88A7F84A30B7F84A3003F04003002B65
:1059FC001DD07A683B681B789B0013441B889BB2B4
:105A0C0023F4E04323F07003A7F848307A683B682E
:105A1C001B789B001A44B7F8483043F07F4343F49B
:105A2C007F0343F4004343F0C0039BB213803B68F5
:105A3C00DB78012B24D07A683B681B789B001344DD
:105A4C001B889BB223F4E04323F04003A7F84430B7
:105A5C00B7F8443083F02003A7F844307A683B68E9
:105A6C001B789B001A44B7F8443043F07F4343F44F
:105A7C007F0343F4004343F080039BB213801DE08B
:105A8C007A683B681B789B0013441B889BB223F4F9
:105A9C00E04323F04003A7F846307A683B681B7854
:105AAC009B001A44B7F8463043F07F4343F47F031E
:105ABC0043F4004343F080039BB213807A683B6845
:105ACC001B789B0013441B889BB223F4804323F068
